:020000040001F9
:10F00000107E002005F501000DF501000FF501004F
:10F0100011F5010013F5010015F5010000000000D5
:10F0200000000000000000000000000017F50100D3
:10F03000000000000000000019F501001BF50100B0
:10F040001DF501001DF5010051F901001DF501003C
:10F050001DF501001DF5010079F601001DF5010007
:10F060001DF501001DF501001DF501001DF5010054
:10F070001DF501001DF501001DF501001DF5010044
:10F080001DF50100E1F701001DF501001DF501006E
:10F0900005F801001DF5010009F801001DF501004A
:10F0A0001DF501001DF501001DF501001DF5010014
:10F0B0001DF501001DF5010000000000000000002A
:10F0C0001DF501001DF501001DF501001DF50100F4
:10F0D0001DF501001DF5010000000000000000000A
:10F0E0000000000000000000000000000000000020
:10F0F0000000000000000000000000000000000010
:10F1000000000000000000000000000000000000FF
:10F1100000000000000000000000000000000000EF
:10F40000DFF80CD000F0FAF800480047D94A0200B3
:10F41000107E0020401E00BF00BF00BF00BF00BF25
:10F4200000BF00BF00BF00BF00BF00BF00BF00BFE4
:10F4300000BF00BF00BF00BF00BF00BF00BF00BFD4
:10F4400000BF00BF00BF00BF00BF00BF00BF00BFC4
:10F4500000BF00BF00BF00BF00BF00BF00BF00BFB4
:10F4600000BF00BF00BF00BF00BF00BF00BF00BFA4
:10F4700000BF00BF00BF00BF00BF00BF00BF00BF94
:10F4800000BF00BF00BFC5D170470000401E00BFD5
:10F4900000BF00BF00BF00BF00BF00BF00BF00BF74
:10F4A00000BF00BF00BF00BF00BF00BF00BF00BF64
:10F4B00000BF00BF00BF00BF00BF00BF00BF00BF54
:10F4C00000BF00BF00BF00BF00BF00BF00BF00BF44
:10F4D00000BF00BF00BF00BF00BF00BF00BF00BF34
:10F4E00000BF00BF00BF00BF00BF00BF00BF00BF24
:10F4F00000BF00BF00BF00BF00BF00BF00BFC5D13D
:10F50000704700000648804706480047FEE7FEE7D0
:10F51000FEE7FEE7FEE7FEE7FEE7FEE7FEE70000A8
:10F5200031F8010001F4010040EA01039B0703D018
:10F5300009E008C9121F08C0042AFAD203E011F832
:10F54000013B00F8013B521EF9D27047D2B201E0F4
:10F5500000F8012B491EFBD270470022F6E710B5D8
:10F5600013460A4604461946FFF7F0FF204610BD31
:10F5700010B5044604E00B7800F8013B03B1491CC8
:10F58000521EF8D2204610BD421C10F8011B002963
:10F59000FBD1801A704730B504460020034600E0D6
:10F5A0005B1C934203D2E05CCD5C401BF8D030BDC5
:10F5B00030B505460020034600E05B1C934205D2AF
:10F5C000EC5CC85C201A01D1002CF6D130BD30B5FE
:10F5D0000B46014600202022012409E021FA02F511
:10F5E0009D4205D303FA02F5491B04FA02F52844AB
:10F5F000151EA2F10102F1DC30BD0000064C074DE2
:10F6000006E0E06840F0010394E8070098471034F2
:10F61000AC42F6D3FFF7F8FEE06602000067020096
:10F6200070B58C1810F8015B15F0070301D110F8C4
:10F63000013B2A1106D110F8012B03E010F8016BF1
:10F6400001F8016B5B1EF9D12B0705D40023521E74
:10F650000DD401F8013BFAE710F8013BCB1A921CDC
:10F6600003E013F8015B01F8015B521EF9D5A142DA
:10F67000D8D3002070BD00002DE9F0470025DFF849
:10F68000F090A8464FF4807601242F46304605F0CE
:10F69000F3FC38B1D9F80403204203D0304605F01A
:10F6A000E1FC2543361D64007F1CB6B2082FEDD364
:10F6B0004FF4BE74204605F0DFFC38B1204605F05B
:10F6C000D1FC2C4845F00045D0F800802A4E280790
:10F6D00014D0012700242F420CD009EB8401D1F86B
:10F6E0001005D1F81015C0F3042056F82420C1F3FA
:10F6F000014190477F00641C082CECD3002D32DAC6
:10F700000024B14609EB04004E4690F95010491C04
:10F7100026D090F8507027F0C005284601F0D0FBA5
:10F7200056F82060E6B1BF090120A840A90001F108
:10F73000A041D1F8001710EA080FC1F3014102D02F
:10F74000022902D00CE003290AD1032F05D1022996
:10F750000BD00221284605F076FC39462846B047F2
:10F76000641C042CCED3BDE8F0870321F2E700002F
:10F770000060004010050050082F002000F01F021C
:10F78000012191404009800000F1E020C0F8801282
:10F79000704700F01F02012191404009800000F1F4
:10F7A000E020C0F80011704700F01F0201219140D5
:10F7B0004009800000F1E020C0F8001270474907BE
:10F7C000090E002806DA00F00F0000F1E02080F8B2
:10F7D000141D704700F1E02080F80014704700000D
:10F7E00007480021C0F84011C0F84411C0F8481182
:10F7F000C0F84C11C0F80011C0F8041106F0DEBAD0
:10F800000010014006F076BA084810B5406840B1D3
:10F810008047002809D00022BDE81040114600F0C2
:10F8200041BDBDE8104003F0ADBC10BDDC29002097
:10F8300070B53F483E490024091D00780A1D131D7C
:10F84000012506280BD10E78360708D11678C6F3A5
:10F850000316032E03D11E7816F0F00F02D00628EF
:10F8600006D011E03348016821F0807101600EE09C
:10F870000E78360708D11678C6F30316032E03D187
:10F880001E7816F0F00F02D0062804D015E02A49A1
:10F89000032008600BE0087800070ED11078C0F351
:10F8A0000310032809D1187810F0F00F05D14FF09C
:10F8B0008040C0F80C41C0F810411E4874380168FF
:10F8C00041F470010160BFF34F8FBFF36F8F4FF0B2
:10F8D0001021D1F80002002803DBD1F80002002833
:10F8E00021DA164A156016480368002BFCD0152350
:10F8F000C1F800320568002DFCD0C1F8043201685F
:10F900000029FCD0146001680029FCD0BFF34F8FA0
:10F910000848F03801680B4A01F4E06111430160C6
:10F92000BFF34F8FFEE709490748086070BD00002C
:10F93000E00F00F0FCED00E0A005004004E5014010
:10F9400000E401400400FA050090D003F0290020F3
:10F950002DE9FF5F604C614D4FF0020BE07D4FF4ED
:10F96000927800264FF4A27AF0B34146284605F07B
:10F9700000FCA0B1C5F824618DF800B0D5F8800472
:10F98000C5F880040390D5F83C058DF80800E068C0
:10F990000190E674D4E90012684690470FE04FF4F6
:10F9A0008871284605F0E5FB48B1C5F81061D5F827
:10F9B0003C05E17CC0B2814201D105F0D3FF514644
:10F9C000284605F0D6FB40B1C5F84461E07C20B183
:10F9D000D5F83C05C0B205F0C5FF4FF4907128463C
:10F9E00005F0C7FB002800E00DE072D0C5F82061EB
:10F9F000A07C00286DD0D5F84C0504B0C0B2BDE89D
:10FA0000F05F06F03FBA4FF40071284605F0ABFBFB
:10FA10004FF401790127E8B14146284605F09EFBE5
:10FA2000C0B1C5F82461C5F80893607D00B96F6066
:10FA30008DF800B0D5F88004C5F880040390E07C10
:10FA40008DF80800E0680190E674D4E90012684679
:10FA5000904718E00421284605F085FB98B14FF443
:10FA60008471284605F07AFB68B105F069FFE07CF7
:10FA7000217D884207D1607D00B96F60C5F8089389
:10FA8000207D05F06FFF4FF48E71284605F066FB70
:10FA900058B1A07C218A884202D906F0D3F904E04B
:10FAA000C5F81C6108B106F0EDF95146284605F08D
:10FAB00055FB00280DD0C5F84461607D00B12F6072
:10FAC000E07C002805D0207D04B0BDE8F05F05F0A3
:10FAD00049BFBDE8FF9F0000602F002000200040CC
:10FAE0000FB4084B10B504A902AA039800F01CF843
:10FAF000044602A9002000F0C1F8204610BC5DF8C1
:10FB000014FB00007DFC010002E008C8121F08C1C0
:10FB1000002AFAD170477047002001E001C1121F8E
:10FB2000002AFBD1704700002DE9FF4F89B09B46AA
:10FB30000446002506E025280BD05A460B9990472D
:10FB4000641C6D1C20780028F5D10DB02846BDE856
:10FB5000F08F0027B8460122474900E0074314F818
:10FB6000013F203B02FA03F00842F7D120782E280B
:10FB700019D114F8010F47F004072A280ED06FF0AE
:10FB80002F022078A0F1300109290CD808EB880158
:10FB900002EB410100EB0108641CF2E70A98641CC7
:10FBA00050F8048B0A9020780028CED0642808D022
:10FBB000692806D075281ED05A460B9990476D1CAF
:10FBC00058E00A994FF00A0901C90A91002802DA9F
:10FBD00040422D2102E0390504D52B218DF820105B
:10FBE000012103E0F90704D02021F7E78A4608AE97
:10FBF0000DE00021FAE70A994FF00A0901C90A91BC
:10FC0000F7E74946FFF7E3FC303106F8011D00280D
:10FC1000F7D1ADEB060000F12009780701D44FF0D1
:10FC20000108C84502DDA8EB090000E0002080467D
:10FC3000002706E008A85A46C05D0B9990476D1C46
:10FC40007F1C5745F6DB04E030205A460B9990475D
:10FC50006D1CB8F10001A8F10108F5DC05E016F80B
:10FC6000010B5A460B9990476D1CB9F10001A9F19F
:10FC70000109F4DC641C65E7092801000A68531CCB
:10FC80000B601070704700000148807802F014BAD1
:10FC90008429002030B58FB005461C2105A8FFF748
:10FCA0005CFC9DF81400002440F00A008DF814005C
:10FCB0000C949DF83000142120F00F00401C20F01F
:10FCC000F00010308DF830009DF8310020F00F006A
:10FCD000401C20F0F00010308DF831009DF832000B
:10FCE00020F0060040F01000001D8DF8320068463C
:10FCF000FFF733FCA8788DF8360047F2C970ADF8ED
:10FD000034000DA800900CA801901220ADF8080056
:10FD1000ADF80C00064804901A38054BADF80A40BF
:10FD20000088083B6A4605A9A2DF0FB030BD00007D
:10FD3000CA36002030B58FB005461C2105A8FFF754
:10FD40000CFC9DF81400002440F00A008DF814000B
:10FD50000C949DF83000142120F00F00401C20F07E
:10FD6000F00010308DF830009DF8310020F00F00C9
:10FD7000401C20F0F00010308DF831009DF832006A
:10FD800020F0060040F01000001D8DF8320068469B
:10FD9000FFF7E3FBA8788DF8360047F2B970ADF8AD
:10FDA00034000DA800900CA801901020ADF80800B8
:10FDB000ADF80C00064804904838054BADF80A40F1
:10FDC00000883E3B6A4605A9A2DF0FB030BD0000A7
:10FDD000F836002001220A7002224A700268C1F837
:10FDE00002204068C1F806000020C1F80A00C8815E
:10FDF0007047000030B58FB005461C2105A8FFF7FD
:10FE0000ACFB9DF81400002440F00A008DF81400AB
:10FE10000C949DF83000142120F00F00401C20F0BD
:10FE2000F00010308DF830009DF8310020F00F0008
:10FE3000401C20F0F00010308DF831009DF83200A9
:10FE400020F0060040F01000001D8DF832006846DA
:10FE5000FFF783FBA8788DF8360047F2A970ADF85C
:10FE600034000DA800900CA801901020ADF80800F7
:10FE7000ADF80C000648ADF80A40A0F13703049035
:10FE800033F8020B6A4605A9A2DF0FB030BD0000AF
:10FE9000E73600202DE9F0410D46194905260024DA
:10FEA00001EBC00740F2FF2838190079FF281ED067
:10FEB000144900EB800001EB800010222946FFF777
:10FEC0006AFBD0B12968414507D16A682AB9AA6896
:10FED0001AB9EA68B2F1B05F0FD0414507D168683E
:10FEE00028B9A86818B9E868B0F1807F05D0641C0B
:10FEF000032CD9D33046BDE8F0810026FAE7000094
:10FF0000482900209835002059B100220B4B11469A
:10FF100003EBC20253181B7983420DD0491C0329FD
:10FF2000F8D300EB80020648002100EB8200017448
:10FF3000016041608160C160704700004829002075
:10FF4000983500202DE9F041244D47690E460024E4
:10FF50004CF2040804EB840005EB8000017C21B125
:10FF600010223146FFF717FB78B1641C032CF1D344
:10FF70004046002404EB840105EB8101097C21B19A
:10FF8000641C032CF6D3BDE8F0811549002001EB79
:10FF9000C70211180979A14206D100EB800005EBD8
:10FFA0008000317C017417E0401C0328F1D34046E7
:10FFB000002153181B79FF2B03D0491C0329F8D3C8
:10FFC000E1E701EB810005EB8000337C0374E8CEB0
:10FFD00080E8E800501804710020D4E7983500202C
:10FFE000482900202DE9FC5F00251688074615806A
:10FFF000406B14468946A8464FF00C0A11234FF077
:020000040002F8
:10000000020B98B101784846032E48D380F800B01F
:100010002288521C92B2228083542288521C92B2AF
:10002000228009F802102088401C20803A6BDAB147
:100030002088494600F11205B54230D80B5420887B
:100040001023401C80B220800B542088401C20804C
:100050000F202388155C401ECD54238840B25B1CC2
:1000600023800028F5DA454697F82E0030B1334654
:100070002246494604F004FC050011D197F82D00F2
:1000800030B132462146484600F06AFB050007D1F0
:10009000B87820B32088C846001DB04202D9504627
:1000A000BDE8FC9F684679DF0028F9D1218803204C
:1000B00008F8010020881921401C80B2208008F82F
:1000C00000102088401C80B2208000EB0801BDF8A1
:1000D000000006F075F90146208808442080F87871
:1000E000B8B1228897F90310D31C4846B342D6D83A
:1000F00000F802B022880123521C92B2228083545D
:100100002288521C92B2228009F802102088401CDA
:1001100020807868B8B1218890F90020CB1C48462F
:10012000B342BCD800F801B021880A23491C89B227
:10013000218043542188491C89B2218009F801207B
:100140002088401C2080388950B1CDE900464B46BC
:100150000622022107F1080006F06EF905009FD182
:10016000388A50B1CDE900464B460722032107F1FA
:10017000100006F061F9050092D1388B50B1CDE93D
:1001800000464B461522142107F1180006F054F9D9
:10019000050085D1386A30B133462246494602F01F
:1001A000E9F80500DBD1786A30B13346224649468A
:1001B00004F082FD0500D2D197F82C0038B1334607
:1001C00022464946384605F001FC0500C7D138787B
:1001D00038B1334622464946384604F09FFD0500B3
:1001E000BDD128465CE70000074810B5806900F1E2
:1001F000440100F081FA002805D00022BDE810403B
:10020000114600F04FB810BD5029002070B50024F1
:10021000064D06E06868012110F8340004F0F6FD90
:10022000641C28788442F5D3002070BDA0290020EA
:10023000F8B515460C460646052A01D20720F8BD3A
:1002400004F0C6FE18B904F099FE0028F7D1104951
:1002500000204E600C70C1E902500E4D08610DE0A7
:1002600006EBC4006968009181788DF80110007870
:10027000094A694604F01CFE0028E0D1641EE4B27D
:10028000EED2BDE8F840054A0021024800F074B8FB
:10029000A029002060660200652C0200AD27020044
:1002A00001F08EBB2DE9F047164E154D13468846DA
:1002B000814635600024371F3C607F221946124872
:1002C000FFF756F9104880F87F401048A0F80480E6
:1002D000C0F8089081888168407820B13D60346022
:1002E0003CDFBDE8F087BFF34F8F09480168094A3A
:1002F00001F4E06111430160BFF34F8FFEE700009E
:10030000000100020C050050242A002000280020D3
:100310000CED00E00400FA05024AD268002A00D081
:10032000104770478C28002038B50C46074BA26850
:10033000097802EB420253F82250054A126A0092F1
:10034000024604F108002369A84738BDD4310020D3
:1003500068280020074910B50A7802EB820201EBF9
:100360008201091DFFF7E0FFBDE81040042005F001
:1003700071BB0000782F0020074B9B6823B12AB186
:1003800020B10068037C1BB108207047072070472C
:100390004174426100207047B42900202DE9F047E4
:1003A0008046994614460F4690074FF0000634D118
:1003B0001C4D8CB305F0A6FA0320C5F814902870E4
:1003C00004F11800002107EB4703AC6004EBC10205
:1003D000491C167056709770506000EBC3000329DB
:1003E000F4DBEE606E70AE701420FFF7C7F90321E6
:1003F0001420FFF7E4F91420FFF7CBF90A49C1F8FC
:10040000008003211120FFF7DAF90748001F006878
:1004100028610020BDE8F08701E00720FAE7AE6020
:10042000FBE70000B4290020081501402DE9F8433E
:10043000DFF870900D461746D9F80810044651B3FE
:100440004CB3052D02D20720BDE8F883606910B3D4
:10045000607C012821D0002605F0B8FFD9F80810EB
:10046000804601EBC800694605F0D2FFB8B1012112
:1004700000F8041B0C4910C0096880E8E200D9F8B4
:10048000081001EBC8009DF8001041701420FFF720
:100490008BF90020D8E70820D6E72E46DCE70420B9
:1004A000D2E70000B429002004150140F8B5124E2F
:1004B0000446B168E1B1DCB16069C8B100272774B6
:1004C00005F084FF0546B068694600EBC50005F0FD
:1004D0009FFF78B1022101704460B0689DF8001060
:1004E00000EBC50041701420FFF75EF93846F8BDF7
:1004F0000820F8BD0420F8BDB42900202DE9F04102
:100500000E460446097840698AB0002937D0DFF8E2
:10051000E880012908F1080506D00127022931D019
:1005200003292CD1F0B356E02A6800212046002A86
:1005300025D12860416148F2FE010025CDE9011571
:10054000D0E90012CDE903129DF80C1081F00201F0
:100550008DF80C1002218DF8141001A9FFF7F2FCA0
:10056000204602F049FFD8F804006946401CC8F84C
:1005700004008DF80050D8F80020204690470AB0BB
:10058000BDE8F0810028FAD18DF80070D8F800207D
:100590002046694646469047204602F04FFF706865
:1005A000401E00E004E07060284602F0D7FDE6E758
:1005B000F16805290FD071681831FFF76BFC50B94D
:1005C0008DF81D708DF81C703089089006A907A859
:1005D00002F0C8FF18B1706804F004FDCFE7069977
:1005E0007068486028308860C8682838C86020462D
:1005F00003F058FFC3E700004029002008B54AF285
:100600000E2298B1016889B143687BB1084A0B6832
:1006100053604968916040681060002002F05EFD00
:1006200004480090684600F07BFA08BD104608BDFB
:10063000F4290020B9400200FEB50F462C49096894
:1006400039B14AF20E213FB130B1282A06D2C81F73
:10065000FEBD4AF28020FEBD0846FEBD002101918C
:100660008169009201EB8103C3EB8111214B02AA46
:1006700003EB81053B4601A903F058FA060035D18A
:10068000BDF80810019AD5F8E43005F120044AF2CB
:100690004120D5F8E0C0A3EB0C030F2B21D8D4F8F0
:1006A000C40000F00F0000EB400004EB800042604B
:1006B000D4F8C40000F00F0000EB400004EB800011
:1006C0000181D4F8C40000F00F0000EB400044F8B2
:1006D000207054F8C40F401C2060D5F8E80010B119
:1006E00004E0064602E0284605F0DEFB3046FEBD8B
:1006F000F429002018490020F0B50C4693B01F21C2
:100700000726ADF80010ADF80410002750B1C178ED
:1007100049070DD56A4602A9FFF764FC002808D1F5
:1007200002AD02E00025ADF800706CB1E07810B1C8
:10073000304613B0F0BD01AA0AA92046FFF752FCCB
:100740000028F6D10AAA02E00022ADF80470BDF834
:100750000400C3B2BDF80000C1B2284672DFE8E76A
:100760007CB5054608880C460930904201D90C201A
:100770007CBD684671DF0028FAD1218808206854C2
:1007800020881B21401C80B2208029542088401CD6
:1007900080B220802844DDF801100160BDF805100A
:1007A00081802088801D80B220809DF8001001B1DA
:1007B000012129542088401C208000207CBD10B5D8
:1007C000044601F009FB204600F0F0F92046BDE8A0
:1007D000104004F0D3BC000038B50446124800684D
:1007E000D8B1ECB12088A0F57F41FF3912D06188E3
:1007F0006A4600F06DFB00280BD19DF800100B4AF3
:1008000001EB410102EB810103208871618820889E
:10081000B2DF38BD4AF2071038BD4AF2801038BD49
:100820004AF20E1038BD0000002A0020044A0020C1
:100830002DE9F04FDFF8E0B291B00446DBF800207C
:10084000002A6FD04FF000084FF6FF79FF20ADF877
:1008500008908DF81800CDF81480ADF80A80208833
:1008600001210227261DAD4D4FF4A06A71287DD0CD
:1008700006DC01287BD011287AD0702879D104E0D9
:10088000722877D07328F9D1ACE04FF4A060322100
:10089000ADF81C00ADF82010ADF800806189ADF80E
:1008A0002C00ADF82E00ADF828108000ADF83C000B
:1008B00008A80D9007A80C90984806AA0C300E9036
:1008C0001A20ADF83E00A0884FF6FE7100F000FB44
:1008D0004FF0040A50B106AA0021484600F0F8FA89
:1008E0002089232808D0ADF82A7015E0FF20ADF844
:1008F0002AA08DF818000FE0A089B0F5A06F12D3E0
:100900009DF81800FF280ED000EB400005EB80009A
:1009100080680E90ADF82A80A0886A460AA9B1DFE7
:1009200020B106E0F5E0ADF82AA0F5E7BDF82A0011
:1009300038B19DF81800FF2875D000BF00F084FA88
:1009400071E09DF81800FF286DD08DF80C8004969A
:1009500000EB4002A18825F8221005EB8202BDF8C9
:10096000000050809771ADF8081004E006E068E0E0
:1009700097E065E024E0ADF80A0054E06189A088C2
:1009800006AA00F0A5FAE8BB9DF8180000EB4001AC
:1009900005EB81029179012945D1A188ADF80810B4
:1009A0006189ADF80A108DF80C80049623894146C0
:1009B0001BB14AF203110591C0E70591977132E02E
:1009C0008DF80C1004962189A08806AA00F080FA00
:1009D000C0B9A088ADF808002089ADF80A009DF8DC
:1009E0001800ABE78DF80C7004962189A08806AA40
:1009F00000F06EFA30B9A088ADF808002089ADF893
:100A00000A0000E00FE09DF81800628900EB40004A
:100A100005EB8000818811448180208A504502D9ED
:100A20004AF240100590BDF80810494567D0DBF840
:100A3000002002A803A990479DF80C00022856D078
:100A40005DE004F1080A002725E000BF0AEBC700BB
:100A50000A908188A08806AA00F03AFA9DF818004A
:100A6000FF2817D00A998A8800EB400105EB810026
:100A7000408882420ED103228DF80C200496ADF8F6
:100A80000A0035F82100ADF80800DBF8002002A8C4
:100A900003A990477F1C607AB842D7D8ADF8089078
:100AA0002DE04AF2411005902B88A788464628463B
:100AB000BB42F3D107AF04978779012F14D08DF88B
:100AC0000C1003218171A188ADF81C106888ADF865
:100AD0000830ADF82000ADF80A0002A803A990473D
:100AE000304600F0B1F9D9E78DF80C60E9E79DF8E0
:100AF000180020B90498698882682888B4DFAA8819
:100B00004446002A05D069882888B5DF002800D12E
:100B1000AC8011B0BDE8F08F002A0020044A00200C
:100B20001CB504004AF20E1016D02168002913D01B
:100B300001208DF802004FF4C150ADF8000001AA69
:100B400069460120A0DF002806D10449206808601A
:100B5000002000F079F900201CBD0000002A0020D0
:100B6000F8B50446104816460D460068C8B14AF26A
:100B70000E10002C11D0002D0FD02088A0F57F4141
:100B8000FF390BD061886A4600F0A2F9002804D131
:100B90006188208833462A46B3DFF8BD4AF2071041
:100BA000F8BD4AF28010F8BD002A00202DE9FF416F
:100BB00004460088512828D1A07A012825D1002296
:100BC000009202200192029203928DF80000384EAA
:100BD000384D2389B6F802C094F82000297840F2F5
:100BE0000D1706F12C0E9C4511D1831F0B2B02D340
:100BF000ADF8047006E08EF80A0041F0010028709C
:100C0000ADF80420A0886946A8DFBDE8FF81B6F8EA
:100C10000AC09C450FD1102802D9ADF8047006E037
:100C20008EF81B0041F002002870ADF80420A08867
:100C30006946A8DFE9E7768A9E4230D100260A3865
:100C4000092802D3ADF804701FE094F82200ADF833
:100C50000420012806D002280FD003280DD04FF41D
:100C6000C17007E001F0010040420840800704D451
:100C700040F28110ADF8040007E0204601F0E8FCE6
:100C800010B140F28310F5E70126A0886946A8DF7D
:100C9000002EBAD0064869682C308847B5E740F284
:100CA0000110ADF80400A0886946A8DFADE7000098
:100CB000B03600207C29002000B5124B85B00FCB48
:100CC0008DE80F0047F29970ADF810000DF1120198
:100CD000684663DF002812D10B4A04A90120A0DF77
:100CE00000280CD104A8FFF785F8002807D104A834
:100CF000FFF720F8002802D104A8FEF7CBFF05B0CB
:100D000000BD000050660200B036002010B5044659
:100D100035210448FEF721FC03484460BDE810403B
:100D2000FFF7CABFDC3600207C2900201CB50F4825
:100D300048220F490369082004F0BAFE18B10022C6
:100D40001146FFF7AFFA0020009001908DF80000E7
:100D5000684660DF002807D1064804F09FFE00289F
:100D600002D1054804F0BCFE1CBD00005029002043
:100D7000E4350020BF070200DD5C0200F0B51A4830
:100D80001A4F00240578391D4FF000730A1D2DB14C
:100D9000012D06D0022D0BD0032D0BD10B6014605A
:100DA00008E03D68AB430B6005F00073136001E0A1
:100DB00013600C60C37885784FF4807633EA050CB5
:100DC00001D00E6014601D4207D03F6826EA070C70
:100DD000C1F800C007F4807717609D4301D00E6012
:100DE00014608370F0BD000000280020040500504E
:100DF00041094A4200EB421010B5044A01248440E4
:100E000052F82130234342F8213010BDD829002068
:100E1000054AD268002A05D1012903D1072801D14A
:100E200001F098B9704700000028002005494FF0F4
:100E3000FF32082841F8202002D3084480F84820D7
:100E400070470000082F00200A4900EB40034FF6CE
:100E5000FF7221F8232001EB830100224A808A805F
:100E60008A71044A00EB80000C3202EB802088601B
:100E700070470000044A0020F0B54FF0FF3512B172
:100E80000023082601E008230C260C4C05E000BFD7
:100E900054F823707F1C04D05B1CB342F8D328465F
:100EA000F0BD26185DB286F8305044F82310002AB1
:100EB000F5D1E11881F84800F1E70000082F002083
:100EC0000249084490F9300070470000082F0020C4
:100ED00030B5094B00241D88854209D1A1F57F401A
:100EE000FE3802D05888884202D11470002030BDEC
:100EF0004AF2051030BD0000044A00202DE9F041FF
:100F00003A48017801EB810100EB8104D4E9030642
:100F100000EB40013648241D00EB8100B0F808804A
:100F20004589476804F0C6FAB6FBF0F100FB116092
:100F300080B3002008FB05776188A288DFF8B480C1
:100F400011448D190022C8F8102040B104F0B2FA03
:100F50006188884221D0BD4201D1A088E8B1A06853
:100F600003281AD004F0A6FAA18844463144B1FB04
:100F7000F0F200FB12108008C8F80C0004F09AFA96
:100F8000B5FBF0F100FB115078B10020BD4228D034
:100F900068B126E0FFE70120CCE704F08BFAB6FB4E
:100FA000F0F10320C8F814101CE00120EEE7ADB208
:100FB000BEB204F07FFAB6FBF0F704F07BFAB5FBA3
:100FC000F0F0874201D1701B09E004F073FA064685
:100FD00004F070FAB5FBF0F100FB1150301A8008F4
:100FE00020610220BDE8F04104F034BD782F0020DC
:100FF000D4310020682800200648017801EB8101E7
:1010000000EB81000079042801D000F0B3BE01207C
:1010100004F020BD782F00200A480B4A017801EB2C
:10102000810100EB8100C18811620079012805D09F
:10103000032801D0042804D1FFF760BF012004F089
:1010400009BD7047782F00206828002000EB80023F
:101050000548002100EB820002220171C180C0E935
:101060000321416101817047782F00202DE9F04173
:10107000114D069E6C781E2C1BD02F783C441E2CE4
:1010800000D31E3C04EB840405EB840420716261F0
:10109000D1E90001C4E90301E38026816878401C9E
:1010A00068700648007808B9FFF7B6FF0020BDE871
:1010B000F0810420FBE70000782F00206828002042
:1010C00008B53AA13A4800F0F7FB18B100221146E2
:1010D000FFF7E8F8364837A1343000F0EDFB18B1DF
:1010E00000221146FFF7DEF831493148343100F073
:1010F000D1FB18B100221146FFF7D4F82C4830A1DB
:10110000683000F0D9FB18B100221146FFF7CAF889
:1011100027480121683041802B490161014634385C
:1011200000F0B8FB18B100221146FFF7BBF82048C9
:1011300026499C3000F0C0FB18B100221146FFF791
:10114000B1F81B491A489C3100F0A4FB18B10022E9
:101150001146FFF7A7F81D491548491FD03000F088
:10116000ABFB18B100221146FFF79CF8104805218F
:10117000D030418016490161412141610146343836
:1011800000F088FB18B100221146FFF78BF86420AD
:10119000ADF8000069460F4800F0ECFB002803D0D2
:1011A00000221146FFF77EF808BD00002F00000066
:1011B0008C2D00202E77656C6C2D6B6E6F776E001A
:1011C000636F72650000000009650200F1650200AE
:1011D000D5480200A42E0020704700000149C860D5
:1011E000002070478C28002002460A4810B5426053
:1011F00000230122C0E90223084600F021FC002858
:1012000007D100F09FFA002803D1BDE8104000F09C
:10121000ABBB10BD8C280020F8B506000D464CF283
:101220000E301ED0002D1CD000200446286014E093
:1012300006EBC400018C11290DD1418C426A68462D
:1012400000F0EAF900280CD10098C0B201F0E8F8EB
:10125000296808432860641CE4B2B07FA042E7D844
:101260000020F8BD4CF20E3200B3F9B1827C22F0BE
:101270000302521C82740B7C63F3830282740B7B27
:1012800063F3071282744A7CC274CA8982820A6834
:101290004266002202664A8A52B14A8AA0F8702049
:1012A000D1E90121C0E91A2100207047104670479A
:1012B0004CF207307047F8B516460A46044600253A
:1012C000694610460095FFF7A7FF0098012300B973
:1012D0000093716900980140002021FA00F2D207C2
:1012E00002D1401C2028F8D38340102B14D006DCF8
:1012F000012B0BD0042B0BD0082B04D10AE0202BA0
:101300000CD0402B0CD04CF20530F8BD257009E014
:10131000282006E0292004E02A2002E02F2000E017
:10132000322020700020F8BD2DE9F8430400174654
:101330000E464CF20E3004D0002E02D0042F02D202
:10134000401FBDE8F883307804258109A07C61F353
:101350000100A0743178090961F38300A074317829
:1013600061F30710A0747078E074B0780002A08276
:10137000F1780844A082002007E0715D22186D1CFE
:10138000401C82F86810ADB2C0B2BD4203D2A17C4D
:10139000B0EB111FF1D30020A07784F876008046CF
:1013A00010E000BFADF8008070196A46214601F0D8
:1013B000BFF90028C5D1A07F401CA077BDF8000070
:1013C000284485B2BD4202D2705DFF28EAD1BD42F9
:1013D0000BD2705DFF2802D04CF24230B1E76D1C99
:1013E000A8B2391AA1833044A0610020A9E710B542
:1013F0000446806F03F0F6FD204603F0F3FD002065
:1014000010BD00002DE9F84F0E465FEA02080446C1
:101410004CF20E310ED06CB1A28B04210AB1511DD9
:1014200089B2A07C0823B3EB101F05D24CF20B301D
:10143000BDE8F88F0846FBE7B4F8723001EB1011F5
:1014400019441FFA81F9B8F80010E9B3494502D2EE
:101450004CF20C30ECE70AB1A16991B18EB1810177
:10146000C0F3810241EA021141EA10103070E07CC1
:101470007070A08A0425000AB070207DF0700020F2
:101480000AE04CF24030D3E7211891F8681071550A
:101490006D1C401CADB2C0B2A17CB0EB111FF3D3E8
:1014A0000027BA4612E000BF04EBC701ADF800A068
:1014B00070196A46203101F05DFA18B9BDF80000D4
:1014C000284485B27F1C00E010E0FFB2A07FB84244
:1014D000EAD8A08B50B1A06940B1FF2070556D1CB7
:1014E000A8B2A28B3044A169FEF71EF8A8F80090BC
:1014F00000209DE7F8B50446488A0D46D0B180200B
:1015000000906946204603F0CFFD002811D18021CC
:101510002068FEF722F84FF480700090206869463A
:10152000783003F0C1FD0600206806D003F05AFDB4
:101530003046F8BD4CF20730F8BD806F0099FEF7D9
:101540000CF821680098A1F87C00E88920B90549C9
:101550008868E881401C886029462068FFF782FE81
:10156000F8BD00008C2800202DE9FC41877F0D4646
:101570000446082F03D34CF20430BDE8FC81B4F8D4
:101580007C10B4F874004FF00008091AADF8001090
:10159000A16F0E184AB36946304600F079F800286A
:1015A000EBD100BF04EBC70101AA4E6214F8760F1D
:1015B000281A21F8200FBDF80000488004F81E59B1
:1015C000ADF80480002001F0D5F9618BBDF804204E
:1015D0001144618314F83A1C491C04F83A1CA18B8D
:1015E000BDF800201144A183C7E7ADF80080D9E71A
:1015F00010B5B0F87440836F23448361828318462A
:10160000FDF792FF002010BD10B51222FDF78CFFF0
:10161000002010BD01F0F2BD10B54CF20E3340B108
:101620003AB10023052930D2DFE801F005070A149A
:101630001F00184610BD03600AE00360117806E041
:101640000360117843EA0121016052781BE00160D8
:10165000002010BD0360117843EA01410160537816
:1016600041EA0321016092780DE00360117843EABA
:1016700001610160537841EA03410160937841EAD6
:1016800003210160D2781143E1E74CF2093010BD2B
:1016900070B54CF20E3348B141B19D1ED3B2FF2A52
:1016A00006D80A889AB10370012019E0184670BD67
:1016B000C2F30724B2F5803F06D20A88022A06D375
:1016C0000470437002200BE00E88042E01D22846DD
:1016D00070BD150E0570120C42708470C37004202A
:1016E0000880002070BD000010B530B1134C217887
:1016F000042905D34CF2043010BD4CF20E3010BD5D
:101700000F490022C2EB021301EB8303DB6933B103
:10171000521CD2B2042AF5D34CF20C3010BDC2EBED
:10172000021201EB820301463C221846FDF7FCFE43
:101730002078401C2070002010BD00001C290020D3
:10174000EC31002070B50A4E002400BFC4EB041039
:1017500006EB800005463C21FDF7FFFE6C60641C33
:10176000E4B2042CF2D303490020087070BD0000DD
:10177000EC3100201C29002010B50C4B002200BFCA
:10178000C2EB021403EB840424898C4206D1C2EB21
:10179000021103EB81010160002010BD521CD2B286
:1017A000042AEDD34CF2053010BD0000EC310020CE
:1017B0002DE9F041104D164688460746002400BF2B
:1017C000C4EB041005EB8000827AB24205D122B14D
:1017D00041460B30FDF7DFFE38B1641CE4B2042C47
:1017E000EED34CF20530BDE8F081C4EB041005EBFC
:1017F000800038600020F6E7EC310020134A21B168
:10180000891A3C23B1FBF3F117E0C1EB011302EBA2
:101810008303DB6953B9491CC9B20429F5D310E02D
:10182000C1EB011302EB8303DB6933B1C1EB01119F
:1018300002EB8101016000207047491CC9B20429F4
:10184000EED3002101604CF205307047EC310020EE
:1018500010B50E4A002100BFC1EB011302EB830358
:1018600083420CD1C1EB011002EB80003C21FDF75B
:1018700074FE07490878401E0870002010BD491CFE
:10188000C9B20429E8D34CF2053010BDEC31002078
:101890001C2900204CF20E3250B149B102784AB1F5
:1018A000C2685160C1600178491C01700020704716
:1018B000104670478160F5E770B504000D464CF2A4
:1018C0000E3008D0002D06D00846FDF75DFE132827
:1018D00002D94CF20C3070BD2846FDF755FE024689
:1018E000294604F12000FDF71FFE0448016801B9F4
:1018F00004604FF0FF30A061002070BD202900205F
:101900002DE9F05F0646174890468B4604684FF075
:1019100000090CB100251BE04CF20830C6F800901D
:10192000BDE8F09F5BF825A0A4680BE004F120005F
:101930000746FDF729FE024651463846FDF738FEB8
:1019400018B16468002CF1D107E034B16D1CEDB220
:101950004545E7D300203460E2E74CF20530C6F895
:101960000090DDE720290020014900200860704731
:1019700020290020F8B505000C464CF20E3018D096
:10198000002C16D00D4E3068A0B121882846FDF7F6
:10199000E4FD002200942B461046316801F0C6F8A1
:1019A00004462846FDF7F0FD2844002100F8011CFC
:1019B0002046F8BD4CF20830F8BD00002029002078
:1019C00008B500F06DF80020009004E00098818ACE
:1019D00049B1491E818268460099FFF70FFF002830
:1019E000F4D0002008BDC17CD9B9C28A4FF6FF717E
:1019F00001EA42018182C1820121C174018CC26964
:101A00008BB200F12401183000F070F910B1002100
:101A1000FEF782FC0098818A0A2902D8C07C00283F
:101A2000D9D000980022836B01684CF2443098476B
:101A30000098C06903F0D6FA0098FFF709FFCAE7DB
:101A40007CB54CF20E3138B105682DB1684604F012
:101A500069FA040002D011E008467CBD2A880D49CD
:101A6000684604F0A5FA040005D10B49684604F065
:101A700001FB040004D0684604F0DCFA20467CBD7B
:101A8000064800990160298881800190684604F029
:101A90006FFAF3E7D4350020955302002429002083
:101AA000704700002DE9F043A5B01C462C9E1500A0
:101AB000894607464CF2422805D0454503D0002010
:101AC00025B0BDE8F0838020229022A9684603F06B
:101AD000EBFA0028F4D180210098FDF73EFD324654
:101AE00021460098FFF720FC040001D000990CE08B
:101AF000122249460098FDF717FD009E388845459B
:101B0000A6F8700004D131462846FEF705FCE0E057
:101B1000F07C754D4FF0010818B9B07C10F00C0F37
:101B200006D04FF00009304602F0C6FD18BB13E0A6
:101B3000122231466C48FDF7F7FCB6F87000A5F8A4
:101B40007000B08AA882A87C674940F00C00A87495
:101B500003A801F053FBBBE0009EB17CC1F3810000
:101B6000032808D0F07CA0F14002802A2FD211F087
:101B70000C0F3ED059E00098CDF80890818A02A859
:101B8000FFF7FAFD040069D10299886BC8B100988B
:101B90008A7A68300B31FDF7C7FC0298827A009888
:101BA000817C62F30711817402F086FD002802989F
:101BB000009A836B016801D0002001E04CF24330B1
:101BC00098470298C06903F00DFA029842E002F0CB
:101BD000C5FD00287DD0444810380168E9B300985D
:101BE0008847002875D0052839D00E2839D08021A3
:101BF00038E0122231463C48FDF796FCB6F87000FA
:101C0000A5F87000B08AA882A87C802220F00C0081
:101C10000830A874344901A8FDF786FC3888ADF86F
:101C2000740001A924A801F0E9FA0099887C6831C0
:101C3000020923A8FFF7BCFD04004AD12398836B57
:101C40001BB101680020009A98472398C06903F0EF
:101C5000C9F92398FFF7FCFD3AE007E039E0842159
:101C600000E08521009803F08FFE32E0142106A8E1
:101C7000FDF773FC0022104606AC00990CE000BF93
:101C800001EBC0031D8C0B2D04D15B6A44F822309C
:101C9000521CD2B2401C80B28B7F8342F0D82146C6
:101CA00004A8FFF72DFE04460498D0B10369ABB138
:101CB000009A4588D67C761E08FA06F10D4202D0BD
:101CC0001146984705E085214FEA020003F05CFECB
:101CD0000446009803F086F92046F1E68521009835
:101CE000F4E78421FBE700009C2800202DE9F04365
:101CF000060089B0984691460D464FF005044CF217
:101D00000E3031D0002D2FD0B9F1000F2CD0102281
:101D1000294605A8FDF708FC04208DF804000020E2
:101D2000134F8DF80500CDF80880B88831888842B7
:101D300019D1694601A801F015FC040013D13868D7
:101D400003900098424649468068FDF7EDFB2A8AD9
:101D500005A903A8009B04F0B3F9040003D00121F6
:101D6000009801F039FC204609B0BDE8F08300007E
:101D70002429002010B50E4C207800EB800004EBE5
:101D800080010020091DFEF7CFFA2078FFF75EF9E9
:101D90006078401E60702078401CC0B220701E2801
:101DA00001D100202070BDE81040002003F052BE99
:101DB000782F002006494978012906D0022901D050
:101DC000032901D10349016070470249B431FAE7A0
:101DD00084290020A4370020F0B50646008800279B
:101DE000374C384D103889B0072867D2DFE800F04B
:101DF000040F664366662500B088A080002000F0CE
:101E0000E9F909B00120BDE8F04000F0E3B94FF670
:101E1000FF70A0806078022804D1D5F80710012057
:101E200000F0CCF96078012848D1D5F8021009B04B
:101E30000220BDE8F04000F0C1B9607801283DD132
:101E4000204E95F820002136062805D2C0F1060163
:101E500030443022FDF77AFB85F8277032460121A5
:101E6000A08880DF002829D009B00022BDE8F0401A
:101E70001146FEF717BA607801281FD10097182184
:101E800002A80197FDF769FB9DF8000007218DF876
:101E9000011020F03D00102140F002008DF80210EA
:101EA00008308DF80000B08802AB6A4600217FDF61
:101EB000002803D000221146FEF7F4F909B0F0BD66
:101EC000842900202037002070B502781B4C012A9D
:101ED0000BD0022A09D02046032AC1692BD0042A3C
:101EE0000FD10020BDE870400847216A407888473C
:101EF0006088A0F57F41FF3904D000216170132173
:101F000076DF70BD2578606802F01EFB0B48143048
:101F100000F016F809481830FFF74CFF00F0E4FD18
:101F2000FEF762F901206070002DEAD06068BDE81C
:101F3000704002F0E7BA0120D4E7000050290020E9
:101F400006494978012906D0022901D0032901D187
:101F50000349016070470249B431FAE7842900203F
:101F60009037002030B5084B0021084D4FF48072A7
:101F70001C1D28B1012802D11A602160E87030BD13
:101F8000E9701A60216030BD08050050002800206B
:101F90002DE9FC47384C00680F4620610020207076
:101FA00030213648FDF7D9FA344835498160354942
:101FB0004161354901623549C1623548FEF7A6FEE7
:101FC000002856D14FF00108ADF80680E078ADF852
:101FD00004003048009004F11401684603F0F6FA5A
:101FE000060046D103F050FC03F0F8F9234D4FF002
:101FF0000209403D2878FF2805D001280FD0A87994
:10200000012829D02AE000F0A5F81C4840214038DA
:10201000FDF7A3FA4FF49670C5F807001EE0687844
:10202000012801D002280FD11449134885F80090E7
:102030000023E2784039143003F046FB060003D059
:1020400000221146FEF72EF96878012801D184F8A4
:10205000008087F8008003E084F8008087F8009013
:1020600000F04CF900F018F902F0C8FB02F084FB14
:102070003046BDE8FC87000084290020603700203E
:1020800089FC0100452302004D480200C1300200D6
:10209000FD51020015540200012803D0022807D187
:1020A00000F098B80348D0F80210022000F086B87B
:1020B00070470000203700207CB50546204C0020EA
:1020C000204ECDE9000430788DF80100002000F0AA
:1020D00081F8012000F07EF8022000F07BF800F08B
:1020E0000DF900F0D9F802F089FB02F045FB75709C
:1020F000012D1AD0022D0ED0032D0BD103208DF807
:102100000000316968468847D4F80B105FF003007F
:1021100000F054F87CBD01208DF80000316968465C
:102120008847D4F807100120F2E702208DF800005C
:10213000316968468847D4F802100220E8E70000B9
:102140002037002084290020014948707047000092
:102150000028002010B540210848FDF7FEF9084886
:10216000C178143003F058F9002805D00022BDE8EA
:1021700010401146FEF796B810BD00002037002031
:102180008429002070B50C4D002400BF04EB4400EE
:1021900015F8201001290AD105EB80067068401E51
:1021A000706004D1204600F015F8B0688047641CC8
:1021B000E4B2042CEAD370BD6037002000EB40028B
:1021C0000348012300F8223000EB82004160704791
:1021D0006037002000EB40020348002100F8221085
:1021E00000EB820041607047603700202DE9F05F0E
:1021F0002648C168F1B3DFF898B00E688146DBF875
:1022000000400769C078E11B21F07F45ED1CB0B9A3
:10221000DFF880804FF48030C8F84403C8F8040326
:102220001120FDF7ABFA1120FDF7B3FA4FF0010AC8
:10223000C8F800A02F20FDF729F989F803A0B542BE
:1022400000D23546124BE8193C3320F07F4018602D
:10225000DBF800105A46091B21F07F41001B20F0DB
:102260007F40C91C81420FD9106818602F20FDF7EC
:102270000DF900E004E0BDE8F05F1120FDF794BA2D
:10228000BDE8F05F03F03EBBBDE8F09FB42900203D
:10229000041501400010014010B5A0211548FDF7BC
:1022A0005CF9144802210622017000218170C2707D
:1022B00001220282104A4261A0F18402416292F836
:1022C000312062B1A0F88020A0F15202C0F8842031
:1022D0005922A0F87C2000F17C02826600E0816631
:1022E00000F8881F4FF4057241600172028241823A
:1022F00010BD0000A43700208A29002010B5142149
:102300000D48FDF72AF90C48817A21F00F01491C8C
:1023100021F0F0011031817208A141600721018193
:102320004FF4A07181814FF40271C18100210182BB
:102330004FF4C871418210BD903700204E6F646524
:10234000434647000848807918B1012804D0022884
:1023500009D10220FFF7B0BE0549044808600020FB
:10236000091D08603CDF7047203700200001000293
:10237000080500502DE9F04117880646B81D14469F
:102380000D46984202D90C20BDE8F0813188072221
:1023900006290AD34FF4486C4FF6FF73614501D903
:1023A000994202D17088062801D21046ECE76045B8
:1023B00001D99842F9D1994203D0984201D0814283
:1023C000F3D80520E85520881221401C80B22080D7
:1023D00029542088401C80B220804119308803F0A5
:1023E000EFFF2188084480B220804119708803F0F3
:1023F000E7FF2188084420800020C5E7074810B582
:10240000006802F07FF818B100221146FDF74AFF7C
:10241000024901201839087010BD0000182800205A
:10242000014600202A2911D006DC59B128290BD0F9
:10243000292900D1082070472F2909D03229FAD143
:1024400040207047012070470420704710207047DB
:102450002020704710B500EB001404EB40100D4C29
:10246000002304EBC00000BF03EB430400EBC404F3
:10247000247A8C4207D103EB430100EBC100083002
:102480001060002010BD5B1C102BEDD34BF205102B
:1024900010BD0000483300202DE9F05F8B4600EBB3
:1024A000001101EB40112648002500EBC1089246BF
:1024B00098F804702E4637E006EB460108EBC1049D
:1024C000207AFF282DD0207F01282AD1607A8146EA
:1024D000402801D24FF040095FEA497001D0012144
:1024E00000E00021C1EBD90204F10C005946FDF7D0
:1024F00052F8A8B904EBD90009F00701027B4FF4A8
:102500007F40C8400BEBD9010240097801408A4264
:1025100006D11DB1607A6978884201D904F10805B5
:102520007F1E761C102E01D2002FC5D125B10020B0
:10253000CAF80050BDE8F09F4BF20510FAE7000022
:1025400048330020FF210170002141700175416076
:102550008160C16001617047034A01460020126832
:102560008A4200D001207047483300202DE9F04115
:102570000C4E00EB0011002401EB4017A04606EBC7
:10258000C70500BF04EB440005EBC0000830FFF7AF
:10259000D9FF85F80480641C46F83780102CF1D3ED
:1025A000BDE8F0814833002070B588B00546802032
:1025B0000C46009016466946284602F075FD002834
:1025C00041D12D6880212846FCF7C7FF76B16946C6
:1025D00005F17800009602F067FD002833D1A86F5E
:1025E0000099FCF7BAFF0098A5F87C00142102A816
:1025F000FCF7B3FFA07C04F1680100098DF814001A
:10260000A08AADF8160084208DF81900B4F8700087
:10261000ADF81A00A07C020903A8FCF785FFA07C96
:1026200010F00C0F11D0C0F3810000BF8DF818001E
:1026300002A92846FEF716FE002804D121462846A6
:10264000FEF7E2FF002008B070BD0220EEE70000B8
:1026500010B590F8204000F1220122461648FCF700
:1026600063FF154A02F1120011780170A0F12C01EC
:1026700051F81B3FC1F812301BBAC0F801304B684B
:10268000C1F8163019BAC0F80510517A417229B153
:10269000012903D0022901D00B2010BD0A3C14F0FF
:1026A000FF0207D0044980F82C200A3101F13500DF
:1026B000FCF73AFF002010BDCA36002010B5134CBD
:1026C000207900071ED46069401C6061E06808B191
:1026D00004200AE002F020F808B1022005E0206999
:1026E00060B16068C10704D00320BDE8104003F06A
:1026F000EBBA40F0010060600020F6E7BDE8104052
:10270000FEF77ABCBDE8104003F0D4BA6828002078
:1027100006494868020707D4820702D540F0010045
:102720004860022003F0D0BA03F0C4BA6828002041
:10273000F0B503788E7F1F0903F00F05012391F890
:1027400076400D2F0AD00E2F0DD03C4401EBC6066B
:102750000D2D348411D00E2D13D01CE043780D3490
:102760001C440223F2E7437804F20D1404EB032324
:10277000847823449CB20323E8E7C55C5B1C0D35D9
:1027800009E0C75C40F20D155B1C05EB0725C75C33
:102790005B1C3D44ADB275841844706281F876408C
:1027A000708C184410800020F0BD00002DE9F0412D
:1027B00000260125144C22E06068226900EBC60760
:1027C000387805FA00F1114217D08A43226102F0ED
:1027D000CBFB02463878E36805FA00F1194002FAAB
:1027E00000F3994209D17978012901D0012100E053
:1027F000002151407A6802B19047761CF6B22078E9
:102800008642D9D3BDE8F081A02900202DE9FF5FE1
:1028100083464FF0000AD3F808908DF805A00320F6
:102820008DF80400D868884602901F46694601A8C2
:1028300000F098FE00286DD1009840218468812026
:10284000261FA4F12C05307004F803AC24F802AC68
:10285000284600F02BFC08F1080090E80E00D8F89C
:102860001400C5E90830C5E9061200988089001DEA
:10287000C0F3072141EA0020A88098F81800FF283B
:102880004AD008F1180090E80E00D8F82400C5E9F5
:102890000430C5E9021200BFB9F800002080B9F881
:1028A000020060800098D7E902128068091D001DAF
:1028B000121FFCF739FE0098002303AA808910211B
:1028C0003E30ADF80C0005F1080001F077FD002363
:1028D00003AA102105F1180001F070FD00980023F3
:1028E00003AA81898068091D89B2001F01F066FD75
:1028F000BDF80C00C043C0F3072141EA00207080FE
:10290000009988682C388860C8682C30C8605846A0
:1029100001F0B6FEBDE8FF9F48F2FE00C5E9020ADD
:10292000DBE90010C5E90410287C80F0020028745F
:10293000B2E700000E4910B54A788C780023A24215
:1029400012D0521CD2B24A70022A00D14B70084AEF
:102950004B78183252F8232002600869104420F0A6
:102960007F400861012010BD0360002010BD000001
:10297000B42900202DE9F0470D46164609880022AB
:10298000944601F0FF084FF486790D290FD349458D
:1029900007D9A1F20D114FF00E088AB24FF0020CC8
:1029A00005E00D394FF00D088AB24FF0010C6B882D
:1029B00000211C460F460D2B0CD34B4505D90E2488
:1029C000A3F20D1189B2022704E00D24A3F10D0139
:1029D00089B2012760B108F00F0363F31F1404707C
:1029E0000124BCF1010F08D0BCF1020F08D00BE0AC
:1029F0000CEB07005B1C184414E04270022403E057
:102A0000130A437082700324012F02D0022F0DD0CD
:102A100001E00155641C6A8820446968FCF784FD64
:102A20006888204430800020BDE8F0870A0A0255FB
:102A3000641CEEE7002808D0112801D0FDF78ABCFD
:102A40000248416841F00801416070476828002051
:102A500010B51F4C204621784068012910D002296A
:102A60002DD0032932D1000725D46069401C606154
:102A700001F052FED8B12078BDE8104002F0EABF64
:102A8000000718D41348A28B017801EB810100EBF9
:102A90008100C188891A0904090CC18003D0BDE8EE
:102AA000104003F0CDB8BDE81040FFF763B9BDE8B2
:102AB0001040FEF7A1BABDE8104002F0F3B8064896
:102AC000617850F82100BDE81040004710BD0000BB
:102AD00068280020782F00203C66020028DFFFF7DE
:102AE000A9BF29DFFFF7A6BF10B50F4C60690289A7
:102AF00041680A307CDF18B100221146FDF7D2FB95
:102B00006069008878DF18B100221146FDF7CAFB22
:102B100060690C307ADF002805D00022BDE8104043
:102B20001146FDF7BFBB10BD502900202DE9F84F1D
:102B3000DFF8D0A00A9E9B460D460746002400F110
:102B40000108BAB105F120000090FCF71DFD2F210E
:102B50000AF807101FFA80F91FFA88F70AEB070036
:102B60004A460099FCF7E0FC07EB09001FFA80F8E1
:102B7000AF681DE03C210AF807101FFA88F7AD681E
:102B800009E05B461F4A294638460096FFF7CEFF0C
:102B9000040031D16D68002DF3D12CE05B46194A59
:102BA000394640460096FFF7C1FF040024D17F68F4
:102BB000002FF3D13E220AF808206A8808F10100AC
:102BC000514680B2D20505D50A180FA3001D1B6817
:102BD000136080B22C220A54401C85B23088A8426F
:102BE0000CD3401B30805846FCF7CEFC58442A4694
:102BF0000449FCF799FC2046BDE8F88F4CF20C30F4
:102C0000FAE70000DC3200203B6F62730000000036
:102C1000F0B50D4C0246002004F11C0504F1380308
:102C20004AB154F82060964205D353F8206055F815
:102C30002070BE4207D153F820608E4203D8401C5A
:102C40000728EDD30020F0BD6866020010B50146EC
:102C50000020FFF7DDFF024951F8200010BD000001
:102C6000686602002DE9F041124E07460125BD407D
:102C70003068FDF71BFC00280DD10F4C206928425D
:102C800007D1384602F070F90028E06805D02843E3
:102C900004E0A8432061BDE8F081A843E06020691A
:102CA00028432061A1683068BDE8F0410022FDF7AB
:102CB000BDBB000060660200A0290020F0B589B00D
:102CC0000D4604461746142101A8FCF746FCA87CD3
:102CD000C0F38101012903D010F00C0F02D004E0F1
:102CE000012000E002208DF8140085268DF8156083
:102CF000A88AADF8120041F23360ADF81600A87C46
:102D000005F16801020902A8FCF70EFCA87C01A9E4
:102D100000098DF810006846FEF7ECFB18B10022A0
:102D20001146FDF7BFFA29460098FEF76DFC18B171
:102D300000221146FDF7B6FAE87C012817D00328D7
:102D40003BD00098C67408A80099FEF763FC18B140
:102D500000221146FDF7A6FA0098FEF748FB00286E
:102D600003D000221146FDF79DFA09B0F0BD00998D
:102D700045203A46C874294607A8FEF79CFA38B1A0
:102D800000988F21C174817C41F00C018174DAE7D5
:102D900006AA9DF81C10204601F0A2FD0698FCF73B
:102DA000F3FB82B206990098FEF722FC0028CAD0F5
:102DB00000221146FDF776FAC5E7009E442011492E
:102DC000F074A86900230A1F05780D482040302DB3
:102DD00009D0312D04D0322D08D08020F074B2E714
:102DE00008601360AFE710600B60ACE70548083877
:102DF000006824EA0003136004400C60A3E70000AD
:102E0000000100020C05005070B51B4C2079000732
:102E10002DD41A48017801EB810100EB81052E6960
:102E200002F048FBE9882A89761E11443144B1FB3F
:102E3000F0F02169002549B16169814206D1E56060
:102E4000606840F001006060002008E001F064FC70
:102E500010B10220E56002E0206920B10320BDE846
:102E6000704002F031BFBDE87040FEF7C5B8BDE864
:102E7000704002F01FBF000068280020782F00205B
:102E800000207047034800214160012101700020AB
:102E9000704700002C2900202DE9F84307463648EA
:102EA00014460D460078C8B34CF20E10002F38D0EF
:102EB000002D36D0002C34D0D4E902604FF0000849
:102EC00004284DD3A98804294AD33A30ADF800002C
:102ED00000236A46102105F1080001F06FFA002373
:102EE0006A46102105F1180001F068FAA089002354
:102EF00081B26A46A06801F061FABDF80000C043E3
:102F0000ADF8000003202070A068001DA060E068FC
:102F1000001FE060BDF8000010BB04E0FFE74CF2CA
:102F20008010BDE8F88396F800C0BCF1810F17DD72
:102F3000BCF1850F08D0BCF1860F05D0BCF1870F1E
:102F400002D0BCF1880F0BD13846294632462346C1
:102F5000BCF1850F04D0BCF1860F01D102F0F8FB63
:102F60003078802805D12346324629463846FFF777
:102F70004DFC4046D5E700002C29002006490A7880
:102F80001AB128B14860002070474CF28010704799
:102F90004CF20E10704700002C2900202DE9FF5F35
:102FA0008346414891468A460078002878D04CF202
:102FB0000E10BBF1000F6FD0BAF1000F6CD0B9F159
:102FC000000F69D000278DF8057003208DF80400EC
:102FD00014200290694601A800F0C4FA00285BD1D1
:102FE0000098816885200E1FA1F12C05307088465D
:102FF0000C1D77707780FF21284600F057F89AE87B
:103000000E00DAF80C00C5E90430C5E9021299E8AF
:103010000E00D9F80C00C5E90830C5E90612009881
:103020008089001DC0F3072141EA0020A8802146C5
:103030005846C8F80070FCF7CDFE0098002303AA9C
:10304000808910213E30ADF80C0005F1080001F038
:10305000B5F9002303AA102105F1180001F0AEF91B
:103060000098002303AA81898068091D89B2001F86
:1030700001F0A4F9BDF80C00C043C0F3072141EAF8
:1030800000207080009988682C388860C8682C30CF
:10309000C860584601F0F4FA04B0BDE8F09FFFE7BD
:1030A0004CF28010F8E700002C29002070B50D4686
:1030B000044601F0B2F93A20A071E57170BD00003C
:1030C0001CB5002000900190034904208DF80000F9
:1030D0000969684688471CBD8429002070B50546EB
:1030E00000EB8500C0EB8511064800EB8104EC2164
:1030F0002046FCF732FA0020E083A561C4F8E8001E
:1031000070BD0000184900202DE9F041114C164611
:103110000025E28B12B10420BDE8F0814A88E283E9
:103120000988A183FF21217461740168A1600A49A3
:103130004068E060D1E90101C4E9000104F1200028
:103140000746C021FCF709FA47F8C05F7D60002000
:103150003460E1E718490020F429002070B50546E5
:1031600000200446FF26286028190179FF2904D091
:10317000067101212046FCF7C7FE641C032CF3D323
:1031800070BD0000F8B51C4C2078002832D02069B2
:1031900028B10026E06820B1002526B112E0012602
:1031A000F8E70125F9E7684651DF052805D030B179
:1031B00000221146FDF776F804E0012602E02169BD
:1031C0000098884795B96088ADF800006946A06806
:1031D00061DF052805D030B100221146FDF762F805
:1031E00004E0012502E0D4E902018847002EDAD08C
:1031F000002DD2D0F8BD0000DC290020F0B595B03C
:103200000C00064624D00027ADF84C7013AA3946AE
:103210002046FEF7F7F800281CD1BDF84C001190AD
:1032200011A901A801F040FF002813D111990198BC
:10323000FCF793F91198ADF800006A462046019911
:10324000FEF7E0F8050007D0019801F0CBFE51E051
:103250004CF20E3015B0F0BDBDF80030214604F13F
:103260007000019AFEF742FD0500EDD1E07C01F00F
:1032700075FA012148B9E07C452803D1A07C10F003
:103280000C0F02D004203060DEE7206E0290A08A8E
:10329000ADF81000606E109001980990BDF8000024
:1032A0000A900220ADF81E00A27C12F00C0F23D071
:1032B0000A20ADF81C008DF81B1000BFB4F8700098
:1032C000ADF82000A07C122200098DF812002146E2
:1032D0000BA8FCF729F9A07C04F1680102090DF1A3
:1032E0001300FCF721F902A8FEF7FEF90500B1D1A1
:1032F000039830602846ADE7ADF81C008DF81B70D0
:10330000DCE7000070B50D460D491446097871B12F
:103310004BF20E1170B16DB164B1FFF71DF90128C8
:103320000AD022462946BDE87040FFF7B5B84BF2F7
:10333000801070BD084670BD4BF2051070BD0000D6
:103340003429002070B50D460E491446097839B16C
:103350004BF20E1138B134B10F2D06D9C81F70BD14
:103360004BF2801070BD084670BDFFF7F5F80128DC
:1033700005D022462946BDE87040FFF76BB84BF2F6
:10338000051070BD3429002010B50020FFF7EEF8BD
:10339000024901200870002010BD000034290020DF
:1033A00070B50C4612490978C9B14BF20E11C8B17B
:1033B000C4B10025FFF7D0F8012815D02178FF29E6
:1033C00009D000EB001101EB40110A4800EBC101EC
:1033D0000879401E08712046FFF7B4F806E04BF26A
:1033E000801070BD084670BD4BF20515284670BDB3
:1033F000342900204833002070B505460D48007878
:1034000070B185B100242046FFF7A6F801280DD041
:1034100000EB001101EB4010074941F8305007E084
:103420004BF2801070BD4BF20E1070BD4BF20414C5
:10343000204670BD34290020483300200B4910B5C8
:10344000097841B150B10024FFF786F8012808D06F
:10345000FFF78CF807E04BF2801010BD4BF20E1016
:1034600010BD4BF20514204610BD00003429002089
:10347000F8B50C463949097851B164B122784BF25C
:1034800007110F2A02D86278802A07D90846F8BDAA
:103490004BF28010F8BD4BF20E10F8BD0025FFF77F
:1034A0005BF80646012855D021786A46FEF7D2FF20
:1034B000002120B306EB061202EB4613284A002037
:1034C00002EBC30300EB400503EBC5052D7AFF2D8E
:1034D00005D0401C1028F5D34BF204153CE000EB5E
:1034E000400003EBC0000830009006EB061000EB34
:1034F000461002EBC0000D460279521C0271009882
:10350000227800F8012B627800F8132B227D00F856
:103510001029016041608160C1606178CA08211D85
:10352000FCF702F86178480716D001F007024FF463
:103530007F40D040009B04EBD10203EBD10612790F
:1035400031790240814331716078114303EBD0003F
:10355000017101E04BF205152846F8BD3429002021
:1035600048330020F8B504461A480E460078E0B10A
:103570004BF20E00002C1AD0002E18D020784BF2FF
:10358000070120B3052822D86278012A1FD8616874
:1035900071B102F0B5FC0546606862784119684671
:1035A00001F09CFE010006D011E04BF28000F8BD56
:1035B0004BF20900F8BD00986268C2602278027080
:1035C0006278012A02D042682A448260306008464C
:1035D000F8BD00003529002038B50D460D490978A1
:1035E00039B148B10146684601F0A0FE040006D09A
:1035F0000DE04BF2800038BD4BF20E0038BD1DB11E
:103600000098406801F0EEFC009801F0A3FE20460F
:1036100038BD00003529002070B5084D002400BFDA
:1036200004EB840005EB800001F094FE641C0A2C7E
:10363000F6D3034901200870002070BDD03400206B
:1036400035290020F0B5D8B1002104224BF207251E
:103650006426047812E0436853F8317057B102EBE6
:10366000C107DB5933B1642B04D3B3FBF6F706FB78
:1036700017330BB12846F0BD491CC9B28C42EAD8B9
:10368000014948600020F0BD3829002010B500F045
:1036900009F8002805D00022BDE810401146FCF7CB
:1036A00001BE10BD70B5114C206864302060C0436D
:1036B000642801D2642020606068A8B10025042637
:1036C0000EE0416806EBC5000A582068B0FBF2F333
:1036D00002FB130212B951F8351088476D1CEDB288
:1036E00060680178A942ECD8002070BD382900201C
:1036F0007FB505460878174C002638B1012804D15B
:10370000FEF7CAFC0220E66020707FBD0220FEF7B3
:10371000C3FC0320E560207048F2FE00CDE90006FE
:10372000D5E90001CDE902019DF8080080F0020012
:103730008DF808004FF4FA7001F03EFB064A694626
:103740002846FFF72BFC0028DFD000221146FCF7AB
:10375000A9FD7FBD00280020006602002DE9FF4F73
:1037600083B04FF000091E460C46ADF80490CDF82A
:103770000090FF2132788046119B03278A464846F5
:1037800004F1280BB7EB521F72D17278B51C1206E8
:1037900004D515F8012B110902F00F0A197083F8EE
:1037A00001A03278C2F3C1073022F7B16023012FA4
:1037B00015D0022F04D0032F2CD1237060700CE0A1
:1037C0002B78C3F3830343F06007277015F8013BA0
:1037D00002EA930242EA8313637060801AE0237066
:1037E00015F8013B02EA93020DE02B78C3F3830343
:1037F00043F06007277015F8013B02EA930242EAA2
:10380000831215F8013B03F00F031A43627035F879
:10381000023B63803278520702D415F8013BA37152
:103820003278930704D0C04B02F003029B5C01E0A6
:1038300015F8013BE371A060E06020616061A06168
:10384000E061206260627078B74F04F108024306BD
:10385000A7F1040702924BD510F0300F75D0C0F3DA
:103860000110012805D002280AD0032817D10EE044
:10387000F1E055F8042B226155F8042B62610EE04B
:1038800035F8022BE2827A88A4F8132007E0D8E901
:103890000203C4E90403207C80F0020222746A4619
:1038A0004046FFF74FFD10B14AF240294DE0009924
:1038B0004878091DC2080298FBF736FE009A517835
:1038C000480742D001F007034FF47F40D84002EB95
:1038D000D10304EBD10C1B799CF808100340814301
:1038E0008CF808105278194304EBD20001722CE0D6
:1038F000C0F3011030B101280BD0022812D00328E8
:1039000023D118E0102229460298FBF70DFE10354E
:103910001BE03988218155F8041B216155F8041BEF
:10392000616112E0398821817988A4F8131035F893
:10393000021BE18209E039882181D8E90202C4E949
:103940000402207C80F002012174707804F11802D6
:10395000029243074FF0FF014FEA007255D5002A4B
:1039600000F003000ADA002875D1217635F8021B31
:10397000A4F8191055F8041B6162A3E0012804D0D3
:10398000022809D0032866D10DE055F8041B2162F6
:1039900055F8041B616210E07988A4F8231035F80B
:1039A000021BE18409E0D8E90002C4E9080294F8A6
:1039B000200080F0020184F820106A4651464046FB
:1039C000FFF7C0FC10B14AF240297BE0009948782B
:1039D000091DC2080298FBF7A7FD009A5178480715
:1039E00070D001F007034FF47F40D84002EBD103C1
:1039F00004EBD1071B79397E034081433976527835
:103A0000194304EBD20001765CE0002A00F00300C9
:103A10002ADA88B3012804D002280FD0032851D114
:103A20001AE0217615F8011B2046617655F8041B33
:103A300040F8231F15F8011B017143E0217615F8AA
:103A4000011B2046617635F8021B20F8251F15F86A
:103A5000011B817036E049E021760221617615F87C
:103A6000011B84F827102DE030B101280CD002286A
:103A700013D0032826D119E0FFE710222946029827
:103A8000FBF752FD10351DE03988218355F8041BE2
:103A9000216255F8041B616214E03988218379881A
:103AA000A4F8231035F8021BE1840BE03988218348
:103AB000D8E90002C4E9080294F8200080F002016D
:103AC00084F820103078400708D501AA21462846FE
:103AD00000F05CFA0544BDF8040038B11098A91B49
:103AE000401A82B2A2801098824203D90B2007B0FC
:103AF000BDE8F08FBDF80410601829462830FBF7A8
:103B000013FDA088BDF804100844A0800599283052
:103B10000880A08840BAA080A079112802D1A1888D
:103B2000ABF804104846E2E7DC6602002DE9FF4FDF
:103B30004FF0000B91B00646ADF834B0CDF830B080
:103B400096F81080777C60208DF802B08DF8000028
:103B500003F108001C46DA46D9460DF102050F9024
:103B6000B8F1FF0F0FD101460E900CAA3046FFF7B7
:103B7000C9FB40B932460C990E9800F0A8FD824668
:103B80000C9890F8008004F118001090FF2F0FD1CE
:103B900001460E900CAA3046FFF7B4FB40B906F17F
:103BA00008020C990E9800F092FD81460C98077857
:103BB0008021B8F1FF0F0AD08DF801109DF8021096
:103BC000FF2F41EA08108DF8020004D108E0FF2F12
:103BD00008D08DF801109DF8020038438DF80200DE
:103BE0006D1C01E08DF801B0207861780007000EAF
:103BF00040EA11108207120E42EA900062880AB968
:103C0000090707D0810616D005F8010B607800F08F
:103C10000F001CE040B19DF8001041F010018DF83C
:103C2000001005F8010B17E09DF8000040F01800A7
:103C30008DF8000010E09DF8001000F0C00041F089
:103C400008018DF80010617801F00F01084305F8B4
:103C5000010B608825F8020BA07911280FD005F818
:103C6000010BE079012811D0402814D0FF2819D089
:103C700005F8010BA06848F2FE0BC0B11DE09DF8ED
:103C8000000040F004008DF80000EAE79DF8000015
:103C900040F0010003E09DF8000040F002008DF8C4
:103CA0000000E7E79DF8000040F00300F7E7E06858
:103CB00018B9206908B9606908B3B8F1FF0F23D0BB
:103CC0009DF8010040F040008DF801003078227C22
:103CD00080F00200824257D1607C7178884253D1D3
:103CE000A07CB17888424FD1E17CF07881424BD101
:103CF000207D3379984247D1FF2937D044E09DF8A1
:103D0000010040F0400046E021895945DED01022F4
:103D100028460F99FBF708FC1035207EFF289DF8F8
:103D200001005FD0FF2F6FD040F004008DF801003C
:103D3000317A94F8200081F00201884215D194F87C
:103D40002110727A914210D194F82210B27A9142E5
:103D50000BD194F82320F17A8A4206D194F82410EA
:103D6000337B994201D1FF2A70D0DCE0FE280BD1D1
:103D7000607D7179884207D1A07DB179884203D1F5
:103D8000E07DF179884202D0BAF1000F06D09DF8AB
:103D9000010040F030008DF80100BEE75AB9607CA8
:103DA00048B9A07C38B9E07CFF2804D1207DFE28EA
:103DB00001D1607D60B19DF8010040F010008DF8E8
:103DC0000100216945F8041B606945F8040BA4E76C
:103DD0009DF8010040F020008DF80100E08A25F8F0
:103DE000020B9AE740F008008DF80100FF2F0CD07D
:103DF00040F004008DF80100FF212176B4F819008D
:103E000025F8020B606AB4E048E0617E0229618B0C
:103E100001D089B146E0E9BBE169A1B9216A91B954
:103E2000A18C69B994F8261051B940F003008DF8BF
:103E3000010094F827002CE0E16921B9216A11B949
:103E400094F8241019B1A18B79B12BE05AE040F01D
:103E500002008DF80100607E05F8010B204630F865
:103E6000251F25F8021B807813E0E18B91B9218C86
:103E700081B994F8221069B940F001008DF8010071
:103E8000607E05F8010B204650F8231F45F8041BFF
:103E9000007900E006E005F8010B09E0218B5945A7
:103EA0003FF446AF102228461099FBF73DFB103532
:103EB0009DF80000400705D50DAA2146284600F0D0
:103EC000B3F805446846281A85B2BDF83410C5F128
:103ED000280001441E982A46401A13990880BDF80C
:103EE00034006946401B20442830FBF71DFBBDF819
:103EF00034001299401B20442830086015B000207F
:103F0000BDE8F08FFE290ED194F82510727B914206
:103F100009D194F82610B27B914204D194F827106D
:103F2000F27B914202D0B9F1000F06D09DF801005A
:103F300040F003008DF80100BAE780B994F8210041
:103F400068B994F8220050B994F82300FF2806D1EC
:103F500094F82400FE2802D194F8250060B19DF861
:103F6000010040F001008DF80100216A45F8041BB2
:103F7000606A45F8040B9BE79DF8010040F00200E1
:103F80008DF80100E08C25F8020B91E770B50578FB
:103F90001E240346B4EBD50F44D1168801F1280442
:103FA000344411268E71118808311180431C15F09C
:103FB000030106D0012908D002290FD0032929D1F5
:103FC00016E033F8021B21800EE033F8021B21803B
:103FD00013F8011B41F4704149BA1AE013F8011BB0
:103FE00041F4704149BA218033F8021B618011E02D
:103FF00019784FF2B00202EB11110E0A46EA0121C4
:10400000218013F8011B01F00F0111440A0A42EA52
:1040100001216180690702D50021E18002E033F8C7
:10402000021BE180181A70BD70B58C790346112C03
:104030002FD1148828312144F02404700C88431CAB
:1040400065BA2E0940F60B75AE420ED14E8876BA8F
:104050003609AE4209D1F32404704C880D88C4F3AC
:1040600003242D0A44EA051423E064BA240AF02C40
:1040700011D04C8864BA240AF02C13D00C8823F891
:10408000024B4C8823F8024BC98823F8021B0821F5
:104090001180181A70BDF22404700C88240A03F8E9
:1040A000014BEEE7F12404700C8823F8024B4C8896
:1040B000240A03F8014BE7E72DE9F043DFF8848198
:1040C0008FB00D46D8F80020814682B100245E4EA4
:1040D00002940594F18BB9F80200274681420BD176
:1040E000B18BB9F80000814206D1304605E04AF2B2
:1040F00080200FB0BDE8F08338460290297831B1B6
:1041000001293DD002295AD003292FD192E06868B5
:10411000007C8DF80C006968C97B8DF80D1069680A
:10412000897B8DF80E10FF218DF80F10FE218DF880
:1041300010106968497B8DF811106968097B8DF84A
:1041400012106968C97A8DF813106968897A71B19B
:1041500040F002008DF80C0002AA494603A8FEF7C1
:10416000D3FF040006D04846FCF736FB67E020F09A
:104170000200EFE7012102988DF828100D9754E016
:10418000E0B302218DF828100AA90D9790470298F4
:104190000025876907EB8700C0EB871006EB8006D8
:1041A00005EB450006EB8000006A08B100F01AFF3D
:1041B0006D1C102DF4D33846FEF790FF3FE0E8B1B8
:1041C000686808A980892930089005A800F06CFF6C
:1041D000040034D1686807AA8189CDE90012836898
:1041E00009AA05990298FFF7B9FA040007D0A4F5C7
:1041F0002240403803D0059800F0F4FE1FE0A96883
:104200004AF24010814201D104B90446BDF824109D
:104210000298059AADF830100323BDF81C108DF8F4
:1042200028300D940B92ADF83210D8F800200AA96E
:10423000904704E001F018FE029801F035FE204698
:1042400057E70000F4290020184900202DE9F04F1D
:10425000334C236873B14CF20E035AB350B3646805
:104260004FF0000A55464CF20503012C06D00CB362
:104270005B1C1FE04CF28000BDE8F08F284C083436
:104280002668BEB1066000200029F5D07369DFF80A
:1042900094E0002604EBC30909EB06031B79FF2B0E
:1042A0002FD003EB83040EEB840B9BF81030022B12
:1042B00002D026E01846DFE700235F464FEA0304FA
:1042C00012F804C017F80480C44504D10833641CF4
:1042D000102CF5D311E012F804C008F0FF048CEAAA
:1042E000040C00245FEA0C6707D44FEA4C675B1CA0
:1042F000641C4FEA176C082CF4D3534501D39A463B
:104300005D46761C032EC7D31DB13CCD81E83C0031
:10431000B2E700220A604A608A60CA60ACE7000027
:1043200040290020983500202DE9F04188461949A0
:10433000096809B34CF20E02B8F1000F1FD0F0B1BA
:104340001449406900240831134F4CF2050601EB73
:10435000C00528190079FF2808D000EB800007EB82
:10436000800010224146FBF716F950B1641C032C63
:10437000EFD33046BDE8F0814CF28000FAE71046FA
:10438000F8E72919FF20087101212046FBF7BCFD41
:104390000026EEE74029002098350020064A1268E2
:1043A0002AB14CF20E0229B120B1FBF7CBBD4CF281
:1043B00080007047104670474029002070B515886E
:1043C0002C0AEDB217E0012922D010F8016B891EEA
:1043D000344410F8016BA4B23544ADB289B22E0A50
:1043E00003D004EB1524A4B2EDB2260A03D005EBEA
:1043F0001425ADB2E4B20029E5D105EB042080B26A
:1044000023B1A0F57F41FF3900D10020108070BD9D
:10441000017821448CB20021E1E760210170002184
:1044200041704180FF2282714022C27181807047B9
:104430007CB504004CF20E002CD02168002929D054
:104440006168002926D000F01FFEFFF7E5F801F0B3
:10445000DBFEFEF717FDFEF797FF0F490022CA6348
:104460000A644A648A640D496068C1E9000201F186
:104470000800FEF773FE002500212846FBF744FDE7
:104480006D1C032DF8D32068009005480190684604
:10449000FCF7B4F87CBD00009835002040290020CE
:1044A000FD040200FEB50C46896800254CF2410669
:1044B00031F8242D52BA21F804294A8852BA4A8088
:1044C0008A79112A15D03A2A0FD002218DF80010CE
:1044D00002940B4A61680191126869469047012174
:1044E0002046FFF779F82846FEBD2246FEF7D4FCA9
:1044F00002E0224601F0A0FE0546B042EFD1F2E70D
:104500004029002010B50F4C6168884201D0072077
:1045100010BD607858B90B481430FDF711FD0948FB
:104520001830FDF747FCFEF7DFFAFBF75DFE0020D1
:104530006070A069883073DF0028E9D10121217003
:1045400010BD00005029002010B5064C616888425B
:1045500001D0072010BD74DF0028FBD1002121709D
:1045600010BD0000502900201CB50C4607494968C1
:10457000884201D007201CBD684671DFDDF80110BC
:104580002160BDF80510A1801CBD0000502900204D
:104590000A4A5368984201D1487908B10720704708
:1045A000064B002024331870086842F8250F8888CD
:1045B00090801946002070DF7047000050290020CD
:1045C0001CB50C4616494968884201D007201CBD1D
:1045D000684671DF18B100221146FBF763FE9DF8B3
:1045E000060020709DF8051061709DF80410A17000
:1045F000FF21E170FE2121719DF8031061719DF88A
:104600000210A1719DF80110E1719DF8001021B117
:1046100040F00200207000201CBD20F00200F9E7ED
:10462000502900207CB50446006818B1012903D048
:1046300007207CBD0E207CBD0F4DA8606068E8603F
:10464000217A002028610120107168681060FCF751
:104650006DFB0028EFD1E068E86120692862074817
:10466000009001A96846FDF793FC04469DF80400FC
:10467000FDF722FD20467CBD50290020C91E020006
:1046800070B50C460B49096879B14CF20E017CB14A
:1046900070B1A1898AB2A168FBF7CEFF054600215F
:1046A0002046FEF799FF284670BD4CF2800070BD91
:1046B000084670BD40290020C17C21B9807CC0F330
:1046C0008100022801D000207047012070472DE9A9
:1046D000F041497815460646802917D0402918D957
:1046E000CC0801F007070F2C08D029193019C4F1A4
:1046F0000F02401CC91FFAF74EFF50B9305DB84099
:10470000291911F8081CB940884202D10120BDE8DE
:10471000F0810020FBE7000070B50E48017801EB46
:10472000810100EB8104256900F0C4FEE188228943
:104730006D1E11442944B1FBF0F1074842698A42D9
:1047400005D301D1006910B14FF0000070BD4FF0EA
:10475000010070BD782F00206828002018B12028A3
:1047600001D20120704700207047800701D000204F
:10477000704701207047000010B5A0211C48FAF7CF
:10478000ECFE1C4A59230021D47B1948002C04D08C
:104790008487A0F5947404640387017081704FF0DE
:1047A0000404C4704FF001040482134C446104D02B
:1047B0000F4C04F13804446200E0416292F8312069
:1047C00062B1A0F880200B4A02F13202C0F88420C6
:1047D000A0F87C3002F5C172826600E0816600F8C4
:1047E000881F4FF40572416001720282418210BD40
:1047F00058380020203700208E29002010B51421C1
:104800000E48FAF7AAFE0D480DA2817A21F00F0199
:10481000491C21F0F00110318172002101804260B9
:10482000082202814FF4A07282814FF40272C28189
:1048300001824FF4C871418210BD0000443800204D
:10484000436F41505F5352560000000009484078C2
:1048500020B1012805D002280AD100E00120FDF78F
:104860002BBC0649044808600020091D08603CDF95
:1048700070470000203700200001000208050050AA
:1048800030B51488E51C9D4201D90C2030BD0225AD
:104890000D5513881C245B1C9BB21380CC541388C9
:1048A0005B1C9BB21380012807D0022807D0032885
:1048B00007D0042807D0072030BD002004E00120E5
:1048C00002E0CD5401E00320C8541088401C108041
:1048D000002030BD02464FF48070FEF7EFB90000B3
:1048E00070B51446164B174A322908D016490025D0
:1048F000CD8019685140014218D0012217E0196893
:10490000514001424FF4807208D0904202D10E48CB
:10491000283001E00C484730206070BD904202D141
:1049200009483730F8E708485630F5E700220648CE
:1049300006A1801DFBF7D4F80348801DECE70000BA
:10494000040500500001000200280020256400003A
:104950002DE9F047DFF8ACA0DAF80C009AF8004037
:1049600080469AF80460DAF80890DAF810703AE0B5
:1049700009EBC4052A7833E002EB42016B68521C54
:1049800003EBC101AB78D2B2934200D100220B7885
:10499000022B02D0032B23D11FE0D1F804C0034621
:1049A000014603E0614503D00B46C969C1B1F9E78F
:1049B000B1B18B4205D1C06918B9134F0126BE6051
:1049C0000027D1F800C0C969D96149B10B686344B7
:1049D0000B6005E00174C06900E000210028F9D1F6
:1049E00069789142C8D1641EE4B2C1D2CAE9030712
:1049F0008AF80460404502D00120BDE8F08700201D
:104A0000FBE70000B4290020001001402DE9F04729
:104A100005462F48002680460778D0F80C904BE0DA
:104A2000D8F8080000EBC70440E002D02846ED6942
:104A30001EE02078616800EB4002401CC0B201EB30
:104A4000C2012070A278904200D126700A7848688E
:104A5000012A2DD1027C5ABB8A684260CA688260F2
:104A60000A69C2604969816198F8041001B1466021
:104A70004268D8F81030DFF85CC0D11A21F07F41CD
:104A8000614502D28268114406E0991A826821F0D9
:104A90007F418A4202D9511A016000E006604660F7
:104AA000012186600174C66101F06AF9002DBCD154
:104AB000207861788842BCD17F1EFFB2B0D2D8F88E
:104AC0000C10494502D00120BDE8F0870020FBE72B
:104AD000B4290020FFFF7F0000200123614A88B035
:104AE0005FF0030403FA00F1114204D0810001F1E8
:104AF000A041C1F80047401C2028F3D35A48026067
:104B00000024001D04602346584A09211F20FBF79A
:104B100045FC18B100221146FBF7C4FB544A0121A1
:104B20005448FBF729FC18B100221146FBF7BAFBE9
:104B300000F0C6FC18B100221146FBF7B3FB33228C
:104B400001214D48FBF774FB18B100221146FBF719
:104B5000A9FBFBF75BFB18B100221146FBF7A2FB98
:104B600014214648FAF7F9FC44484549424A016095
:104B70004449416004724449C160444901610832BA
:104B80000121FFF74FFD18B100221146FBF78AFB08
:104B9000394C01A908342068FFF7E6FC3CA1D1E9B3
:104BA0000001CDE9010101A92068FFF7F1FC18B16E
:104BB00000221146FBF776FB2F4920681031FFF7E2
:104BC000FFFC18B100221146FBF76CFB2A4810309D
:104BD00005903148069005A8FFF72AFC18B100227D
:104BE0001146FBF75FFB2D48FEF7C8F918B100220C
:104BF0001146FBF757FB1F4C04A9241F20680390A4
:104C000003A804901120FCF7EFFA18B10022114616
:104C1000FBF748FB2248FCF7E1FA18B100221146E5
:104C2000FBF740FBFCF74CFA12481030FEF70AFD88
:104C300018B100221146FBF735FB0022662160689F
:104C4000FBF7F4FB18B100221146FBF72BFBFDF735
:104C5000D5FB48DF0028FCD000221146FBF722FBE1
:104C6000F7E700000001000208050050A42A002018
:104C70008D360200E865020010280020902E0020EA
:104C8000C5520200C1520200651F02004921020004
:104C9000D9DA272F6D000000F1360200812E0200C4
:104CA000D91102000348416821F0080141600078F1
:104CB00000F0D0BE6828002070B5144682880E46E9
:104CC00005462088111D0144921C994201D8FE2AF4
:104CD00001D90C2070BD521C32542088FF21401C89
:104CE00080B2208031542088401C80B220808119FD
:104CF000288801F065FB2188084480B22080AA88BA
:104D000042B1A96841B13044FAF70EFC2088A98865
:104D100008442080002070BD072070BDF8B50E4605
:104D2000017814460546012901D1687830B1208800
:104D3000821C9A422DD8012902D006E00720F8BD36
:104D400069780144891C994223D8181A801E87B2B9
:104D5000ADF800702188B01C084469467DDF00284A
:104D6000EDD12878022805D1BDF80010B94201D84C
:104D700009210AE00821012805D16878B84202D843
:104D8000ADF8000001E0ADF80070BDF80000FE28AD
:104D900001D90C20F8BD2288401CB0542088401C4A
:104DA00080B2208031542088401C2080BDF8001043
