:020000040001F9
:10F00000A87E002005F501000DF501000FF50100B7
:10F0100011F5010013F5010015F5010000000000D5
:10F0200000000000000000000000000017F50100D3
:10F03000000000000000000019F501001BF50100B0
:10F040001DF501001DF5010051F901001DF501003C
:10F050001DF501001DF5010079F601001DF5010007
:10F060001DF501001DF501001DF501001DF5010054
:10F070001DF501001DF501001DF501001DF5010044
:10F080001DF50100E1F701001DF501001DF501006E
:10F0900005F801001DF5010009F801001DF501004A
:10F0A0001DF501001DF501001DF501001DF5010014
:10F0B0001DF501001DF5010000000000000000002A
:10F0C0001DF501001DF501001DF501001DF50100F4
:10F0D0001DF501001DF5010000000000000000000A
:10F0E0000000000000000000000000000000000020
:10F0F0000000000000000000000000000000000010
:10F1000000000000000000000000000000000000FF
:10F1100000000000000000000000000000000000EF
:10F40000DFF80CD000F0FAF800480047F94B020092
:10F41000A87E0020401E00BF00BF00BF00BF00BF8D
:10F4200000BF00BF00BF00BF00BF00BF00BF00BFE4
:10F4300000BF00BF00BF00BF00BF00BF00BF00BFD4
:10F4400000BF00BF00BF00BF00BF00BF00BF00BFC4
:10F4500000BF00BF00BF00BF00BF00BF00BF00BFB4
:10F4600000BF00BF00BF00BF00BF00BF00BF00BFA4
:10F4700000BF00BF00BF00BF00BF00BF00BF00BF94
:10F4800000BF00BF00BFC5D170470000401E00BFD5
:10F4900000BF00BF00BF00BF00BF00BF00BF00BF74
:10F4A00000BF00BF00BF00BF00BF00BF00BF00BF64
:10F4B00000BF00BF00BF00BF00BF00BF00BF00BF54
:10F4C00000BF00BF00BF00BF00BF00BF00BF00BF44
:10F4D00000BF00BF00BF00BF00BF00BF00BF00BF34
:10F4E00000BF00BF00BF00BF00BF00BF00BF00BF24
:10F4F00000BF00BF00BF00BF00BF00BF00BFC5D13D
:10F50000704700000648804706480047FEE7FEE7D0
:10F51000FEE7FEE7FEE7FEE7FEE7FEE7FEE70000A8
:10F5200031F8010001F4010040EA01039B0703D018
:10F5300009E008C9121F08C0042AFAD203E011F832
:10F54000013B00F8013B521EF9D27047D2B201E0F4
:10F5500000F8012B491EFBD270470022F6E710B5D8
:10F5600013460A4604461946FFF7F0FF204610BD31
:10F5700010B5044604E00B7800F8013B03B1491CC8
:10F58000521EF8D2204610BD421C10F8011B002963
:10F59000FBD1801A704730B504460020034600E0D6
:10F5A0005B1C934203D2E05CCD5C401BF8D030BDC5
:10F5B00030B505460020034600E05B1C934205D2AF
:10F5C000EC5CC85C201A01D1002CF6D130BD30B5FE
:10F5D0000B46014600202022012409E021FA02F511
:10F5E0009D4205D303FA02F5491B04FA02F52844AB
:10F5F000151EA2F10102F1DC30BD0000064C074DE2
:10F6000006E0E06840F0010394E8070098471034F2
:10F61000AC42F6D3FFF7F8FEBC680200DC680200DB
:10F6200070B58C1810F8015B15F0070301D110F8C4
:10F63000013B2A1106D110F8012B03E010F8016BF1
:10F6400001F8016B5B1EF9D12B0705D40023521E74
:10F650000DD401F8013BFAE710F8013BCB1A921CDC
:10F6600003E013F8015B01F8015B521EF9D5A142DA
:10F67000D8D3002070BD00002DE9F0470025DFF849
:10F68000F090A8464FF4807601242F46304605F0CE
:10F69000A7FD38B1D9F80403204203D0304605F065
:10F6A00095FD2543361D64007F1CB6B2082FEDD3AF
:10F6B0004FF4BE74204605F093FD38B1204605F0A6
:10F6C00085FD2C4845F00045D0F800802A4E2807DB
:10F6D00014D0012700242F420CD009EB8401D1F86B
:10F6E0001005D1F81015C0F3042056F82420C1F3FA
:10F6F000014190477F00641C082CECD3002D32DAC6
:10F700000024B14609EB04004E4690F95010491C04
:10F7100026D090F8507027F0C005284601F056FC1E
:10F7200056F82060E6B1BF090120A840A90001F108
:10F73000A041D1F8001710EA080FC1F3014102D02F
:10F74000022902D00CE003290AD1032F05D1022996
:10F750000BD00221284605F02AFD39462846B0473D
:10F76000641C042CCED3BDE8F0870321F2E700002F
:10F770000060004010050050002F002000F01F0224
:10F78000012191404009800000F1E020C0F8801282
:10F79000704700F01F02012191404009800000F1F4
:10F7A000E020C0F80011704700F01F0201219140D5
:10F7B0004009800000F1E020C0F8001270474907BE
:10F7C000090E002806DA00F00F0000F1E02080F8B2
:10F7D000141D704700F1E02080F80014704700000D
:10F7E00007480021C0F84011C0F84411C0F8481182
:10F7F000C0F84C11C0F80011C0F8041106F092BB1B
:10F800000010014006F02ABB084810B5406840B11E
:10F810008047002809D00022BDE81040114600F0C2
:10F82000CDBDBDE8104003F077BD10BDD429002048
:10F8300070B53F483E490024091D00780A1D131D7C
:10F84000012506280BD10E78360708D11678C6F3A5
:10F850000316032E03D11E7816F0F00F02D00628EF
:10F8600006D011E03348016821F0807101600EE09C
:10F870000E78360708D11678C6F30316032E03D187
:10F880001E7816F0F00F02D0062804D015E02A49A1
:10F89000032008600BE0087800070ED11078C0F351
:10F8A0000310032809D1187810F0F00F05D14FF09C
:10F8B0008040C0F80C41C0F810411E4874380168FF
:10F8C00041F470010160BFF34F8FBFF36F8F4FF0B2
:10F8D0001021D1F80002002803DBD1F80002002833
:10F8E00021DA164A156016480368002BFCD0152350
:10F8F000C1F800320568002DFCD0C1F8043201685F
:10F900000029FCD0146001680029FCD0BFF34F8FA0
:10F910000848F03801680B4A01F4E06111430160C6
:10F92000BFF34F8FFEE709490748086070BD00002C
:10F93000E00F00F0FCED00E0A005004004E5014010
:10F9400000E401400400FA050090D003E8290020FB
:10F950002DE9FF5F604C614D4FF0020BE07D4FF4ED
:10F96000927800264FF4A27AF0B34146284605F07B
:10F97000B4FCA0B1C5F824618DF800B0D5F88004BE
:10F98000C5F880040390D5F83C058DF80800E068C0
:10F990000190E674D4E90012684690470FE04FF4F6
:10F9A0008871284605F099FC48B1C5F81061D5F872
:10F9B0003C05E17CC0B2814201D106F087F8514696
:10F9C000284605F08AFC40B1C5F84461E07C20B1CE
:10F9D000D5F83C05C0B206F079F84FF4907128468E
:10F9E00005F07BFC002800E00DE072D0C5F8206136
:10F9F000A07C00286DD0D5F84C0504B0C0B2BDE89D
:10FA0000F05F06F0F3BA4FF40071284605F05FFC92
:10FA10004FF401790127E8B14146284605F052FC30
:10FA2000C0B1C5F82461C5F80893607D00B96F6066
:10FA30008DF800B0D5F88004C5F880040390E07C10
:10FA40008DF80800E0680190E674D4E90012684679
:10FA5000904718E00421284605F039FC98B14FF48E
:10FA60008471284605F02EFC68B106F01DF8E07C94
:10FA7000217D884207D1607D00B96F60C5F8089389
:10FA8000207D06F023F84FF48E71284605F01AFC0D
:10FA900058B1A07C218A884202D906F087FA04E096
:10FAA000C5F81C6108B106F0A1FA5146284605F0D8
:10FAB00009FC00280DD0C5F84461607D00B12F60BD
:10FAC000E07C002805D0207D04B0BDE8F05F05F0A3
:10FAD000FDBFBDE8FF9F0000582F00200020004020
:10FAE0000FB4084B10B504A902AA039800F01CF843
:10FAF000044602A9002000F0C1F8204610BC5DF8C1
:10FB000014FB00007DFC010002E008C8121F08C1C0
:10FB1000002AFAD170477047002001E001C1121F8E
:10FB2000002AFBD1704700002DE9FF4F89B09B46AA
:10FB30000446002506E025280BD05A460B9990472D
:10FB4000641C6D1C20780028F5D10DB02846BDE856
:10FB5000F08F0027B8460122474900E0074314F818
:10FB6000013F203B02FA03F00842F7D120782E280B
:10FB700019D114F8010F47F004072A280ED06FF0AE
:10FB80002F022078A0F1300109290CD808EB880158
:10FB900002EB410100EB0108641CF2E70A98641CC7
:10FBA00050F8048B0A9020780028CED0642808D022
:10FBB000692806D075281ED05A460B9990476D1CAF
:10FBC00058E00A994FF00A0901C90A91002802DA9F
:10FBD00040422D2102E0390504D52B218DF820105B
:10FBE000012103E0F90704D02021F7E78A4608AE97
:10FBF0000DE00021FAE70A994FF00A0901C90A91BC
:10FC0000F7E74946FFF7E3FC303106F8011D00280D
:10FC1000F7D1ADEB060000F12009780701D44FF0D1
:10FC20000108C84502DDA8EB090000E0002080467D
:10FC3000002706E008A85A46C05D0B9990476D1C46
:10FC40007F1C5745F6DB04E030205A460B9990475D
:10FC50006D1CB8F10001A8F10108F5DC05E016F80B
:10FC6000010B5A460B9990476D1CB9F10001A9F19F
:10FC70000109F4DC641C65E7092801000A68531CCB
:10FC80000B601070704700000148807802F09CBA49
:10FC90007C29002030B58FB005461C2105A8FFF750
:10FCA0005CFC9DF81400002440F00A008DF814005C
:10FCB0000C949DF83000142120F00F00401C20F01F
:10FCC000F00010308DF830009DF8310020F00F006A
:10FCD000401C20F0F00010308DF831009DF832000B
:10FCE00020F0060040F01000001D8DF8320068463C
:10FCF000FFF733FCA8788DF8360047F2C970ADF8ED
:10FD000034000DA800900CA801901220ADF8080056
:10FD1000ADF80C00064804901A38054BADF80A40BF
:10FD20000088083B6A4605A9A2DF0FB030BD00007D
:10FD30006E37002030B58FB005461C2105A8FFF7AF
:10FD40000CFC9DF81400002440F00A008DF814000B
:10FD50000C949DF83000142120F00F00401C20F07E
:10FD6000F00010308DF830009DF8310020F00F00C9
:10FD7000401C20F0F00010308DF831009DF832006A
:10FD800020F0060040F01000001D8DF8320068469B
:10FD9000FFF7E3FBA8788DF8360047F2B970ADF8AD
:10FDA00034000DA800900CA801901020ADF80800B8
:10FDB000ADF80C00064804904838054BADF80A40F1
:10FDC00000883E3B6A4605A9A2DF0FB030BD0000A7
:10FDD0009C37002001220A7002224A700268C1F892
:10FDE00002204068C1F806000020C1F80A00C8815E
:10FDF0007047000030B58FB005461C2105A8FFF7FD
:10FE0000ACFB9DF81400002440F00A008DF81400AB
:10FE10000C949DF83000142120F00F00401C20F0BD
:10FE2000F00010308DF830009DF8310020F00F0008
:10FE3000401C20F0F00010308DF831009DF83200A9
:10FE400020F0060040F01000001D8DF832006846DA
:10FE5000FFF783FBA8788DF8360047F2A970ADF85C
:10FE600034000DA800900CA801901020ADF80800F7
:10FE7000ADF80C000648ADF80A40A0F13703049035
:10FE800033F8020B6A4605A9A2DF0FB030BD0000AF
:10FE90008B3700202DE9F0410D4619490526002435
:10FEA00001EBC00740F2FF2838190079FF281ED067
:10FEB000144900EB800001EB800010222946FFF777
:10FEC0006AFBD0B12968414507D16A682AB9AA6896
:10FED0001AB9EA68B2F1B05F0FD0414507D168683E
:10FEE00028B9A86818B9E868B0F1807F05D0641C0B
:10FEF000032CD9D33046BDE8F0810026FAE7000094
:10FF0000242900209035002059B100220B4B1146C6
:10FF100003EBC20253181B7983420DD0491C0329FD
:10FF2000F8D300EB80020648002100EB8200017448
:10FF3000016041608160C160704700002429002099
:10FF4000903500202DE9F041244D47690E460024EC
:10FF50004CF2040804EB840005EB8000017C21B125
:10FF600010223146FFF717FB78B1641C032CF1D344
:10FF70004046002404EB840105EB8101097C21B19A
:10FF8000641C032CF6D3BDE8F0811549002001EB79
:10FF9000C70211180979A14206D100EB800005EBD8
:10FFA0008000317C017417E0401C0328F1D34046E7
:10FFB000002153181B79FF2B03D0491C0329F8D3C8
:10FFC000E1E701EB810005EB8000337C0374E8CEB0
:10FFD00080E8E800501804710020D4E79035002034
:10FFE000242900202DE9FC5F00251688074615808E
:10FFF000406B14468946A8464FF00C0A11234FF077
:020000040002F8
:10000000020B98B101784846032E48D380F800B01F
:100010002288521C92B2228083542288521C92B2AF
:10002000228009F802102088401C20803A6BDAB147
:100030002088494600F11205B54230D80B5420887B
:100040001023401C80B220800B542088401C20804C
:100050000F202388155C401ECD54238840B25B1CC2
:1000600023800028F5DA454697F82E0030B1334654
:100070002246494604F0CCFC050011D197F82D002A
:1000800030B132462146484600F0F6FB050007D164
:10009000B87820B32088C846001DB04202D9504627
:1000A000BDE8FC9F684679DF0028F9D1218803204C
:1000B00008F8010020881921401C80B2208008F82F
:1000C00000102088401C80B2208000EB0801BDF8A1
:1000D000000006F029FA0146208808442080F878BC
:1000E000B8B1228897F90310D31C4846B342D6D83A
:1000F00000F802B022880123521C92B2228083545D
:100100002288521C92B2228009F802102088401CDA
:1001100020807868B8B1218890F90020CB1C48462F
:10012000B342BCD800F801B021880A23491C89B227
:10013000218043542188491C89B2218009F801207B
:100140002088401C2080388950B1CDE900464B46BC
:100150000622022107F1080006F022FA05009FD1CD
:10016000388A50B1CDE900464B460722032107F1FA
:10017000100006F015FA050092D1388B50B1CDE988
:1001800000464B461522142107F1180006F008FA24
:10019000050085D1386A30B133462246494602F01F
:1001A0008FF90500DBD1786A30B1334622464946E3
:1001B00004F036FE0500D2D197F82C0038B1334652
:1001C00022464946384605F0B5FC0500C7D13878C7
:1001D00038B1334622464946384604F053FE0500FE
:1001E000BDD128465CE70000074810B5806900F1E2
:1001F000440100F00DFB002805D00022BDE81040AE
:10020000114600F0DBB810BD2C29002070B5002489
:10021000064D06E06868012110F8340004F0AAFEDB
:10022000641C28788442F5D3002070BD98290020F2
:10023000F8B515460C460646052A01D20720F8BD3A
:1002400004F07AFF18B904F04DFF0028F7D11049E7
:1002500000204E600C70C1E902500E4D08610DE0A7
:1002600006EBC4006968009181788DF80110007870
:10027000094A694604F0D0FE0028E0D1641EE4B2C9
:10028000EED2BDE8F840054A0021024800F000B96E
:10029000982900203C680200B12D0200F9280200D4
:1002A00070B50D460849496801EBC004207804F098
:1002B0000FFF6178012901D0012100E000214140B8
:1002C0002970002070BD00009829002001F0FEBBBD
:1002D00030B10549097829B104490160002070470F
:1002E0000E2070470820704758290020A8360020AB
:1002F0002DE9F041174D07464FF6AA6028801648B1
:10030000A86000240626AC80A021A5F1A000FFF77C
:1003100024F9A5F1A00001210470C6700E4A0182E3
:10032000121F8562426180F82C10032280F8882019
:10033000C0F88C4080F89040A022A0F89820A0F847
:100340009A400548801F01703846BDE8F04100F032
:1003500005B80000483700205E2900203EB50400A3
:100360000BD1EE208DF8000003208DF8010010481D
:10037000019008208DF808006C460E480078A8B15E
:10038000204606F074F900280FD1207A0A49C01CD3
:10039000888008482178801D417061788170227AB8
:1003A000C01C6168FFF7C0F800203EBD08203EBDBC
:1003B0002468020058290020483700202DE9F04722
:1003C000164E154D13468846814635600024371F6A
:1003D0003C607F2219461248FFF7CAF8104880F89F
:1003E0007F401048A0F80480C0F808908188816898
:1003F000407820B13D6034603CDFBDE8F087BFF35A
:100400004F8F09480168094A01F4E0611143016016
:10041000BFF34F8FFEE70000000100020C05005003
:100420001C2A0020002800200CED00E00400FA0542
:10043000024AD268002A00D010477047682800207E
:1004400038B50C46074BA268097802EB420253F814
:100450002250054A126A0092024604F108002369FC
:10046000A84738BDCC31002044280020074910B5EA
:100470000A7802EB820201EB8201091DFFF7E0FF1F
:10048000BDE81040042005F099BB0000702F00204B
:10049000074B9B6823B12AB120B10068037C1BB1D4
:1004A0000820704707207047417442610020704760
:1004B000AC2900202DE9F0478046994614460F46A6
:1004C00090074FF0000634D11C4D8CB305F0CEFAE6
:1004D0000320C5F81490287004F11800002107EBE0
:1004E0004703AC6004EBC102491C1670567097704C
:1004F000506000EBC3000329F4DBEE606E70AE7059
:100500001420FFF73BF903211420FFF758F91420BA
:10051000FFF73FF90A49C1F8008003211120FFF7D6
:100520004EF90748001F006828610020BDE8F087E9
:1005300001E00720FAE7AE60FBE70000AC290020ED
:10054000081501402DE9F843DFF870900D46174675
:10055000D9F80810044651B34CB3052D02D2072038
:10056000BDE8F883606910B3607C012821D00026C3
:1005700005F0E0FFD9F80810804601EBC800694695
:1005800005F0FAFFB8B1012100F8041B0C4910C0B6
:10059000096880E8E200D9F8081001EBC8009DF86E
:1005A000001041701420FFF7FFF80020D8E7082062
:1005B000D6E72E46DCE70420D2E70000AC29002075
:1005C00004150140F8B5124E0446B168E1B1DCB142
:1005D0006069C8B10027277405F0ACFF0546B06814
:1005E000694600EBC50005F0C7FF78B10221017034
:1005F0004460B0689DF8001000EBC5004170142005
:10060000FFF7D2F83846F8BD0820F8BD0420F8BD41
:10061000AC2900202DE9F0410E46044609784069D6
:100620008AB0002937D0DFF8E880012908F10805F1
:1006300006D00127022931D003292CD1F0B356E08E
:100640002A6800212046002A25D12860416148F20D
:10065000FE010025CDE90115D0E90012CDE9031214
:100660009DF80C1081F002018DF80C1002218DF81C
:10067000141001A9FFF766FC204602F087FFD8F8A6
:1006800004006946401CC8F804008DF80050D8F8F2
:100690000020204690470AB0BDE8F0810028FAD13A
:1006A0008DF80070D8F800202046694646469047ED
:1006B000204602F08DFF7068401E00E004E070608C
:1006C000284602F015FEE6E7F16805290FD07168AB
:1006D0001831FFF7DFFB50B98DF81D708DF81C70D5
:1006E0003089089006A907A803F006F818B17068C9
:1006F00004F02CFDCFE706997068486028308860C8
:10070000C8682838C860204603F094FFC3E700009B
:100710001C29002008B54AF20E2298B1016889B15F
:1007200043687BB1084A0B68536049689160406830
:100730001060002002F09CFD04480090684600F024
:100740007BFA08BD104608BDEC2900204942020092
:10075000FEB50F462C49096839B14AF20E213FB166
:1007600030B1282A06D2C81FFEBD4AF28020FEBD45
:100770000846FEBD002101918169009201EB8103D1
:10078000C3EB8111214B02AA03EB81053B4601A972
:1007900003F094FA060035D1BDF80810019AD5F897
:1007A000E43005F120044AF24120D5F8E0C0A3EB83
:1007B0000C030F2B21D8D4F8C40000F00F0000EB7D
:1007C000400004EB80004260D4F8C40000F00F0049
:1007D00000EB400004EB80000181D4F8C40000F07D
:1007E0000F0000EB400044F8207054F8C40F401C88
:1007F0002060D5F8E80010B104E0064602E0284683
:1008000005F006FC3046FEBDEC290020B049002072
:10081000F0B50C4693B01F210726ADF80010ADF8D7
:100820000410002750B1C17849070DD56A4602A9C6
:10083000FFF7D8FB002808D102AD02E00025ADF893
:1008400000706CB1E07810B1304613B0F0BD01AA71
:100850000AA92046FFF7C6FB0028F6D10AAA02E043
:100860000022ADF80470BDF80400C3B2BDF800006A
:10087000C1B2284672DFE8E77CB5054608880C4619
:100880000930904201D90C207CBD684671DF0028F8
:10089000FAD121880820685420881B21401C80B28E
:1008A000208029542088401C80B220802844DDF814
:1008B00001100160BDF8051081802088801D80B284
:1008C00020809DF8001001B1012129542088401C8E
:1008D000208000207CBD10B5044601F009FB2046B5
:1008E00000F0F0F92046BDE8104004F0FBBC000029
:1008F00038B5044612480068D8B1ECB12088A0F59C
:100900007F41FF3912D061886A4600F067FB0028FA
:100910000BD19DF800100B4A01EB410102EB810164
:100920000320887161882088B2DF38BD4AF2071041
:1009300038BD4AF2801038BD4AF20E1038BD0000B2
:10094000F82900209C4A00202DE9F04FDFF8E0B2A2
:1009500091B00446DBF80020002A6FD04FF0000869
:100960004FF6FF79FF20ADF808908DF81800CDF80C
:100970001480ADF80A80208801210227261DAD4D84
:100980004FF4A06A71287DD006DC01287BD01128A5
:100990007AD0702879D104E0722877D07328F9D101
:1009A000ACE04FF4A0603221ADF81C00ADF820108F
:1009B000ADF800806189ADF82C00ADF82E00ADF8DF
:1009C00028108000ADF83C0008A80D9007A80C90F6
:1009D000984806AA0C300E901A20ADF83E00A08868
:1009E0004FF6FE7100F0FAFA4FF0040A50B106AA71
:1009F0000021484600F0F2FA2089232808D0ADF8FB
:100A00002A7015E0FF20ADF82AA08DF818000FE03D
:100A1000A089B0F5A06F12D39DF81800FF280ED062
:100A200000EB400005EB800080680E90ADF82A8056
:100A3000A0886A460AA9B1DF20B106E0F5E0ADF86A
:100A40002AA0F5E7BDF82A0038B19DF81800FF2864
:100A500075D000BF00F07EFA71E09DF81800FF2805
:100A60006DD08DF80C80049600EB4002A18825F82B
:100A7000221005EB8202BDF8000050809771ADF89E
:100A8000081004E006E068E097E065E024E0ADF8D7
:100A90000A0054E06189A08806AA00F09FFAE8BB2A
:100AA0009DF8180000EB400105EB810291790129C6
:100AB00045D1A188ADF808106189ADF80A108DF80C
:100AC0000C800496238941461BB14AF2031105911B
:100AD000C0E70591977132E08DF80C1004962189DA
:100AE000A08806AA00F07AFAC0B9A088ADF808007C
:100AF0002089ADF80A009DF81800ABE78DF80C705E
:100B000004962189A08806AA00F068FA30B9A08866
:100B1000ADF808002089ADF80A0000E00FE09DF86C
:100B20001800628900EB400005EB800081881144C9
:100B30008180208A504502D94AF240100590BDF8C4
:100B40000810494567D0DBF8002002A803A99047A8
:100B50009DF80C00022856D05DE004F1080A002739
:100B600025E000BF0AEBC7000A908188A08806AA8A
:100B700000F034FA9DF81800FF2817D00A998A88E7
:100B800000EB400105EB8100408882420ED1032238
:100B90008DF80C200496ADF80A0035F82100ADF868
:100BA0000800DBF8002002A803A990477F1C607AA8
:100BB000B842D7D8ADF808902DE04AF24110059020
:100BC0002B88A78846462846BB42F3D107AF049737
:100BD0008779012F14D08DF80C1003218171A18821
:100BE000ADF81C106888ADF80830ADF82000ADF8FD
:100BF0000A0002A803A99047304600F0ABF9D9E7F4
:100C00008DF80C60E9E79DF8180020B90498698810
:100C100082682888B4DFAA884446002A05D06988FB
:100C20002888B5DF002800D1AC8011B0BDE8F08F76
:100C3000F82900209C4A00201CB504004AF20E103E
:100C400016D02168002913D001208DF802004FF43E
:100C5000C150ADF8000001AA69460120A0DF0028BC
:100C600006D1044920680860002000F073F90020D4
:100C70001CBD0000F8290020F8B5044610481646AF
:100C80000D460068C8B14AF20E10002C11D0002D9C
:100C90000FD02088A0F57F41FF390BD061886A46CC
:100CA00000F09CF9002804D16188208833462A4648
:100CB000B3DFF8BD4AF20710F8BD4AF28010F8BD64
:100CC000F82900202DE9FF4104460088512828D149
:100CD000A07A012825D100220092022001920292DE
:100CE00003928DF80000384E384D2389B6F802C0C3
:100CF00094F82000297840F20D1706F12C0E9C453F
:100D000011D1831F0B2B02D3ADF8047006E08EF8CF
:100D10000A0041F001002870ADF80420A08869465F
:100D2000A8DFBDE8FF81B6F80AC09C450FD11028A6
:100D300002D9ADF8047006E08EF81B0041F0020005
:100D40002870ADF80420A0886946A8DFE9E7768A14
:100D50009E4230D100260A38092802D3ADF804702B
:100D60001FE094F82200ADF80420012806D00228E4
:100D70000FD003280DD04FF4C17007E001F001003F
:100D800040420840800704D440F28110ADF80400CE
:100D900007E0204601F002FD10B140F28310F5E7B4
:100DA0000126A0886946A8DF002EBAD006486968E7
:100DB0002C308847B5E740F20110ADF80400A08858
:100DC0006946A8DFADE700005437002074290020F1
:100DD00000B5124B85B00FCB8DE80F0047F299702C
:100DE000ADF810000DF11201684663DF002812D142
:100DF0000B4A04A90120A0DF00280CD104A8FEF7AB
:100E0000F9FF002807D104A8FEF794FF002802D1BB
:100E100004A8FEF73FFF05B000BD00002C680200EB
:100E20005437002010B5044635210448FEF795FBE1
:100E300003484460BDE81040FFF7CABF8037002078
:100E4000742900201CB50F4848220F490369082067
:100E500004F0E2FE18B100221146FFF7AFFA0020BD
:100E6000009001908DF80000684660DF002807D1EF
:100E7000064804F0C7FE002802D1054804F0E4FE4D
:100E80001CBD00002C290020DC350020D708020002
:100E9000455E0200F0B51A481A4F00240578391D46
:100EA0004FF000730A1D2DB1012D06D0022D0BD07D
:100EB000032D0BD10B60146008E03D68AB430B6061
:100EC00005F00073136001E013600C60C37885784F
:100ED0004FF4807633EA050C01D00E6014601D4299
:100EE00007D03F6826EA070CC1F800C007F48077F6
:100EF00017609D4301D00E6014608370F0BD000048
:100F0000002800200405005041094A4200EB42102D
:100F100010B5044A0124844052F82130234342F89A
:100F2000213010BDD0290020012903D1072801D18B
:100F300001F098B97047000005494FF0FF320828CA
:100F400041F8202002D3084480F848207047000070
:100F5000002F00200A4900EB40034FF6FF7221F8F2
:100F6000232001EB830100224A808A808A71044A8F
:100F700000EB80000C3202EB80208860704700009C
:100F80009C4A0020F0B54FF0FF3512B1002308262F
:100F900001E008230C260C4C05E000BF54F8237038
:100FA0007F1C04D05B1CB342F8D32846F0BD261842
:100FB0005DB286F8305044F82310002AF5D1E118CC
:100FC00081F84800F1E70000002F002002490844A2
:100FD00090F9300070470000002F002030B5094B19
:100FE00000241D88854209D1A1F57F40FE3802D03A
:100FF0005888884202D11470002030BD4AF2051092
:1010000030BD00009C4A00202DE9F0413A480178AB
:1010100001EB810100EB8104D4E9030600EB400100
:101020003648241D00EB8100B0F8088045894768E8
:1010300004F0F4FAB6FBF0F100FB116080B300207D
:1010400008FB05776188A288DFF8B48011448D1908
:101050000022C8F8102040B104F0E0FA618888420C
:1010600021D0BD4201D1A088E8B1A06803281AD0E0
:1010700004F0D4FAA18844463144B1FBF0F200FBFD
:1010800012108008C8F80C0004F0C8FAB5FBF0F1A3
:1010900000FB115078B10020BD4228D068B126E095
:1010A000FFE70120CCE704F0B9FAB6FBF0F103202A
:1010B000C8F814101CE00120EEE7ADB2BEB204F097
:1010C000ADFAB6FBF0F704F0A9FAB5FBF0F08742F1
:1010D00001D1701B09E004F0A1FA064604F09EFA63
:1010E000B5FBF0F100FB1150301A8008206102209E
:1010F000BDE8F04104F062BD702F0020CC3100202B
:10110000442800200648017801EB810100EB8100B2
:101110000079042801D000F0B3BE012004F04EBDD8
:10112000702F00200A480B4A017801EB810100EB87
:101130008100C18811620079012805D0032801D0FF
:10114000042804D1FFF760BF012004F037BD7047C9
:10115000702F00204428002000EB80020548002169
:1011600000EB820002220171C180C0E903214161CC
:1011700001817047702F00202DE9F041114D069E2E
:101180006C781E2C1BD02F783C441E2C00D31E3CA8
:1011900004EB840405EB840420716261D1E9000151
:1011A000C4E90301E38026816878401C6870064822
:1011B000007808B9FFF7B6FF0020BDE8F0810420F1
:1011C000FBE70000702F00204428002008B53AA15A
:1011D0003A4800F0F7FB18B100221146FFF7EEF88D
:1011E000364837A1343000F0EDFB18B1002211462B
:1011F000FFF7E4F831493148343100F0D1FB18B140
:1012000000221146FFF7DAF82C4830A1683000F0D0
:10121000D9FB18B100221146FFF7D0F82748012169
:10122000683041802B4901610146343800F0B8FB39
:1012300018B100221146FFF7C1F8204826499C301A
:1012400000F0C0FB18B100221146FFF7B7F81B49A8
:101250001A489C3100F0A4FB18B100221146FFF798
:10126000ADF81D491548491FD03000F0ABFB18B14F
:1012700000221146FFF7A2F810480521D030418026
:1012800016490161412141610146343800F088FB73
:1012900018B100221146FFF791F86420ADF8000064
:1012A00069460F4800F0ECFB002803D000221146ED
:1012B000FFF784F808BD00002F000000842D0020F7
:1012C0002E77656C6C2D6B6E6F776E00636F726539
:1012D00000000000C5660200AD670200654A02001A
:1012E0009C2E0020704700000149C8600020704714
:1012F0006828002002460A4810B5426000230122F7
:10130000C0E90223084600F021FC002807D100F0C4
:101310009FFA002803D1BDE8104000F0ABBB10BD20
:1013200068280020F8B506000D464CF20E301ED09D
:10133000002D1CD000200446286014E006EBC400F9
:10134000018C11290DD1418C426A684600F0EAF9FE
:1013500000280CD10098C0B201F008F929680843B0
:101360002860641CE4B2B07FA042E7D80020F8BD3A
:101370004CF20E3200B3F9B1827C22F00302521C0F
:1013800082740B7C63F3830282740B7B63F307121A
:1013900082744A7CC274CA8982820A6842660022C8
:1013A00002664A8A52B14A8AA0F87020D1E9012126
:1013B000C0E91A2100207047104670474CF20730F0
:1013C0007047F8B516460A46044600256946104699
:1013D0000095FFF7A7FF0098012300B900937169FA
:1013E00000980140002021FA00F2D20702D1401CEF
:1013F0002028F8D38340102B14D006DC012B0BD00F
:10140000042B0BD0082B04D10AE0202B0CD0402B4E
:101410000CD04CF20530F8BD257009E0282006E01C
:10142000292004E02A2002E02F2000E03220207052
:101430000020F8BD2DE9F843040017460E464CF293
:101440000E3004D0002E02D0042F02D2401FBDE87F
:10145000F883307804258109A07C61F30100A07431
:101460003178090961F38300A074317861F30710C2
:10147000A0747078E074B0780002A082F17808441B
:10148000A082002007E0715D22186D1C401C82F8CC
:101490006810ADB2C0B2BD4203D2A17CB0EB111F47
:1014A000F1D30020A07784F87600804610E000BFDA
:1014B000ADF8008070196A46214601F0DFF9002876
:1014C000C5D1A07F401CA077BDF80000284485B29C
:1014D000BD4202D2705DFF28EAD1BD420BD2705DE1
:1014E000FF2802D04CF24230B1E76D1CA8B2391A85
:1014F000A1833044A0610020A9E710B50446806FA5
:1015000003F024FE204603F021FE002010BD000061
:101510002DE9F84F0E465FEA020804464CF20E3100
:101520000ED06CB1A28B04210AB1511D89B2A07CEE
:101530000823B3EB101F05D24CF20B30BDE8F88F37
:101540000846FBE7B4F8723001EB101119441FFA9A
:1015500081F9B8F80010E9B3494502D24CF20C30D9
:10156000ECE70AB1A16991B18EB18101C0F38102AA
:1015700041EA021141EA10103070E07C7070A08ADC
:101580000425000AB070207DF07000200AE04CF2C3
:101590004030D3E7211891F8681071556D1C401C3C
:1015A000ADB2C0B2A17CB0EB111FF3D30027BA4695
:1015B00012E000BF04EBC701ADF800A070196A4645
:1015C000203101F07DFA18B9BDF80000284485B239
:1015D0007F1C00E010E0FFB2A07FB842EAD8A08BE9
:1015E00050B1A06940B1FF2070556D1CA8B2A28B0C
:1015F0003044A169FDF798FFA8F8009000209DE70E
:10160000F8B50446488A0D46D0B18020009069465E
:10161000204603F0FDFD002811D180212068FDF750
:101620009CFF4FF48070009020686946783003F08A
:10163000EFFD0600206806D003F088FD3046F8BDB7
:101640004CF20730F8BD806F0099FDF786FF2168E6
:101650000098A1F87C00E88920B905498868E881EC
:10166000401C886029462068FFF782FEF8BD000014
:10167000682800202DE9FC41877F0D460446082F8D
:1016800003D34CF20430BDE8FC81B4F87C10B4F80C
:1016900074004FF00008091AADF80010A16F0E1881
:1016A0004AB36946304600F079F80028EBD100BF14
:1016B00004EBC70101AA4E6214F8760F281A21F82C
:1016C000200FBDF80000488004F81E59ADF80480D2
:1016D000002001F0F5F9618BBDF80420114461830D
:1016E00014F83A1C491C04F83A1CA18BBDF80020E0
:1016F0001144A183C7E7ADF80080D9E710B5B0F871
:101700007440836F2344836182831846FDF70CFF86
:10171000002010BD10B51222FDF706FF002010BDFD
:1017200001F036BE10B54CF20E3340B13AB1002391
:10173000052930D2DFE801F005070A141F0018461A
:1017400010BD03600AE00360117806E003601178C1
:1017500043EA0121016052781BE00160002010BDC6
:101760000360117843EA01410160537841EA0321A3
:10177000016092780DE00360117843EA0161016035
:10178000537841EA03410160937841EA0321016003
:10179000D2781143E1E74CF2093010BD70B54CF23C
:1017A0000E3348B141B19D1ED3B2FF2A06D80A8834
:1017B0009AB10370012019E0184670BDC2F30724E6
:1017C000B2F5803F06D20A88022A06D3047043701D
:1017D00002200BE00E88042E01D2284670BD150EA3
:1017E0000570120C42708470C370042008800020C1
:1017F00070BD000010B530B1134C2178042905D319
:101800004CF2043010BD4CF20E3010BD0F490022D6
:10181000C2EB021301EB8303DB6933B1521CD2B27A
:10182000042AF5D34CF20C3010BDC2EB021201EBCE
:10183000820301463C221846FDF776FE2078401CC4
:101840002070002010BD0000F8280020E4310020A6
:1018500070B50A4E002400BFC4EB041006EB8000F4
:1018600005463C21FDF779FE6C60641CE4B2042C53
:10187000F2D303490020087070BD0000E43100205D
:10188000F828002010B50C4B002200BFC2EB021458
:1018900003EB840424898C4206D1C2EB021103EBD2
:1018A00081010160002010BD521CD2B2042AEDD388
:1018B0004CF2053010BD0000E43100202DE9F0416C
:1018C000104D164688460746002400BFC4EB04109E
:1018D00005EB8000827AB24205D122B141460B303D
:1018E000FDF759FE38B1641CE4B2042CEED34CF27F
:1018F0000530BDE8F081C4EB041005EB80003860D2
:101900000020F6E7E4310020134A21B1891A3C2374
:10191000B1FBF3F117E0C1EB011302EB8303DB69C9
:1019200053B9491CC9B20429F5D310E0C1EB011326
:1019300002EB8303DB6933B1C1EB011102EB8101DF
:10194000016000207047491CC9B20429EED3002170
:1019500001604CF205307047E431002010B50E4AAA
:10196000002100BFC1EB011302EB830383420CD1C2
:10197000C1EB011002EB80003C21FDF7EEFD0749B1
:101980000878401E0870002010BD491CC9B2042907
:10199000E8D34CF2053010BDE4310020F8280020D7
:1019A0004CF20E3250B149B102784AB1C26851606E
:1019B000C1600178491C01700020704710467047D3
:1019C0008160F5E770B504000D464CF20E3008D08A
:1019D000002D06D00846FDF7D7FD132802D94CF29A
:1019E0000C3070BD2846FDF7CFFD0246294604F1B4
:1019F0002000FDF799FD0448016801B904604FF02B
:101A0000FF30A061002070BDFC2800202DE9F05FB0
:101A10000646174890468B4604684FF000090CB103
:101A200000251BE04CF20830C6F80090BDE8F09F9E
:101A30005BF825A0A4680BE004F120000746FDF741
:101A4000A3FD024651463846FDF7B2FD18B1646861
:101A5000002CF1D107E034B16D1CEDB24545E7D360
:101A600000203460E2E74CF20530C6F80090DDE774
:101A7000FC2800200149002008607047FC28002055
:101A8000F8B505000C464CF20E3018D0002C16D0DC
:101A90000D4E3068A0B121882846FDF75EFD00227A
:101AA00000942B461046316801F0E6F804462846BB
:101AB000FDF76AFD2844002100F8011C2046F8BD0E
:101AC0004CF20830F8BD0000FC28002008B500F0FA
:101AD0006DF80020009004E00098818A49B1491E09
:101AE000818268460099FFF70FFF0028F4D000209C
:101AF00008BDC17CD9B9C28A4FF6FF7101EA420123
:101B00008182C1820121C174018CC2698BB200F152
:101B10002401183000F070F910B10021FEF788FCA4
:101B20000098818A0A2902D8C07C0028D9D0009860
:101B30000022836B01684CF2443098470098C069DA
:101B400003F004FB0098FFF709FFCAE77CB54CF2ED
:101B50000E3138B105682DB1684604F097FA0400DB
:101B600002D011E008467CBD2A880D49684604F081
:101B7000D3FA040005D10B49684604F02FFB04009A
:101B800004D0684604F00AFB20467CBD0648009954
:101B90000160298881800190684604F09DFAF3E78E
:101BA000CC350020FD5402000029002070470000C1
:101BB0002DE9F043A5B01C462C9E1500894607462A
:101BC0004CF2422805D0454503D0002025B0BDE8A1
:101BD000F0838020229022A9684603F019FB002898
:101BE000F4D180210098FDF7B8FC324621460098D8
:101BF000FFF720FC040001D000990CE012224946B6
:101C00000098FDF791FC009E38884545A6F87000C5
:101C100004D131462846FEF70BFCE0E0F07C754D20
:101C20004FF0010818B9B07C10F00C0F06D04FF03F
:101C30000009304602F008FE18BB13E012223146BC
:101C40006C48FDF771FCB6F87000A5F87000B08A1A
:101C5000A882A87C674940F00C00A87403A801F092
:101C600097FBBBE0009EB17CC1F38100032808D044
:101C7000F07CA0F14002802A2FD211F00C0F3ED050
:101C800059E00098CDF80890818A02A8FFF7FAFD84
:101C9000040069D10299886BC8B100988A7A6830CB
:101CA0000B31FDF741FC0298827A0098817C62F347
:101CB0000711817402F0C8FD00280298009A836B16
:101CC000016801D0002001E04CF2433098470298AF
:101CD000C06903F03BFA029842E002F007FE0028D8
:101CE0007DD0444810380168E9B30098884700283F
:101CF00075D0052839D00E2839D0802138E012223D
:101D000031463C48FDF710FCB6F87000A5F87000AD
:101D1000B08AA882A87C802220F00C000830A87429
:101D2000344901A8FDF700FC3888ADF8740001A91A
:101D300024A801F02DFB0099887C6831020923A8B2
:101D4000FFF7BCFD04004AD12398836B1BB10168E7
:101D50000020009A98472398C06903F0F7F9239868
:101D6000FFF7FCFD3AE007E039E0842100E085213F
:101D7000009803F0BDFE32E0142106A8FDF7EDFB4C
:101D80000022104606AC00990CE000BF01EBC00336
:101D90001D8C0B2D04D15B6A44F82230521CD2B248
:101DA000401C80B28B7F8342F0D8214604A8FFF705
:101DB0002DFE04460498D0B10369ABB1009A458862
:101DC000D67C761E08FA06F10D4202D011469847DD
:101DD00005E085214FEA020003F08AFE04460098E0
:101DE00003F0B4F92046F1E685210098F4E7842158
:101DF000FBE70000782800202DE9F043060089B0B9
:101E0000984691460D464FF005044CF20E3031D005
:101E1000002D2FD0B9F1000F2CD01022294605A893
:101E2000FDF782FB04208DF804000020134F8DF88D
:101E30000500CDF80880B8883188884219D16946F4
:101E400001A801F059FC040013D1386803900098F0
:101E5000424649468068FDF767FB2A8A05A903A820
:101E6000009B04F0E1F9040003D00121009801F087
:101E70007DFC204609B0BDE8F08300000029002069
:101E800010B50E4C207800EB800004EB80010020A0
:101E9000091DFEF7D5FA2078FFF75EF96078401E3D
:101EA00060702078401CC0B220701E2801D1002034
:101EB0002070BDE81040002003F080BE702F00208D
:101EC00009494A78012A0AD0022A01D0032A09D1F5
:101ED000064A02600979002904D0FEF7F9B90349DE
:101EE000B4310160704700007C2900203C3800209C
:101EF000F0B5064600880027374C384D103889B0B9
:101F0000072867D2DFE800F0040F66436666250005
:101F1000B088E080002000F003FA09B00120BDE89D
:101F2000F04000F0FDB94FF6FF70E08060780228C5
:101F300004D1D5F80710012000F0E6F960780128F7
:101F400048D1D5F8021009B00220BDE8F04000F0F9
:101F5000DBB9607801283DD1204E95F8200021366C
:101F6000062805D2C0F1060130443022FDF7EEFA12
:101F700085F8277032460121E08880DF002829D0CB
:101F800009B00022BDE8F0401146FEF717BA6078AC
:101F900001281FD10097182102A80197FDF7DDFA4B
:101FA0009DF8000007218DF8011020F03D00102160
:101FB00040F002008DF8021008308DF80000B08863
:101FC00002AB6A4600217FDF002803D000221146C1
:101FD000FEF7F4F909B0F0BD7C290020B8370020E5
:101FE00070B502781B4C012A0BD0022A09D020467A
:101FF000032AC1692BD0042A0FD10020BDE870400C
:102000000847216A407888476088A0F57F41FF39FA
:1020100004D000216170132176DF70BD25786068DF
:1020200002F05AFB0B48143000F016F8094818303B
:10203000FFF746FF00F0FEFDFEF7D6F801206070C6
:10204000002DEAD06068BDE8704002F023BB01209B
:10205000D4E700002C29002006494978012906D040
:10206000022901D0032901D10349016070470249C7
:10207000B431FAE77C2900202838002030B5084B1D
:102080000021084D4FF480721C1D28B1012802D197
:102090001A602160E87030BDE9701A60216030BDBF
:1020A00008050050002800202DE9FC41364C00684E
:1020B0000F4620610020207030213448FDF74DFA92
:1020C00032483349816033494161334901623349C0
:1020D000C1623348FEF7A6FE002853D10126ADF8B1
:1020E0000660E078ADF804002E48009004F1140179
:1020F000684603F01FFB002844D103F079FC03F08D
:1021000021FA224D4FF00208403D2878FF2805D0E3
:1021100001280FD0A879012826D026E000F0A2F8E7
:102120001A4840214038FDF718FA4FF49670C5F868
:1021300007001AE06878012801D002280ED113495F
:10214000114885F800800023E2784039143003F00C
:102150006FFB18B100221146FEF730F968780128AC
:1021600000D126703E7002E0267087F8008000F0F3
:102170006BF900F037F902F009FC02F0C5FB002012
:10218000FEF7B6F8BDE8FC817C290020F837002076
:1021900089FC010091240200DD4902005532020051
:1021A000655302007D550200012803D0022807D1A3
:1021B00000F0B6B80348D0F80210022000F0A4B82E
:1021C00070470000B83700207CB50546204C002041
:1021D000204ECDE9000430788DF80100002000F099
:1021E0009FF8012000F09CF8022000F099F800F020
:1021F0002BF900F0F7F802F0C9FB02F085FB7570CF
:10220000012D1AD0022D0ED0032D0BD103208DF8F5
:102210000000316968468847D4F80B105FF003006E
:1022200000F072F87CBD01208DF80000316968462D
:102230008847D4F807100120F2E702208DF800004B
:10224000316968468847D4F802100220E8E70000A8
:10225000B83700207C2900200149487070470000F1
:102260000028002010B540210848FDF776F90848FD
:10227000C178143003F084F9002805D00022BDE8AD
:1022800010401146FEF79AB810BD0000B837002084
:102290007C2900207CB51A494878022817D1CA88C1
:1022A0000020A2F57F43FF3B01D008710FE00A79BF
:1022B00082F001020A7100901248019008788DF8AE
:1022C000010001208DF800000969684688470D4D1E
:1022D0000024403504EB440015F8201001290AD1F0
:1022E00005EB80067068401E706004D1204600F047
:1022F00017F8B0688047641CE4B2042CEAD37CBDB4
:102300007C290020B837002000EB4002034801235D
:1023100000F8223000EB820041607047F83700205F
:1023200000EB40020348002100F8221000EB82007D
:1023300041607047F83700202DE9F05F2648C168FA
:10234000F1B3DFF898B00E688146DBF8004007690A
:10235000C078E11B21F07F45ED1CB0B9DFF880802B
:102360004FF48030C8F84403C8F804031120FDF787
:1023700005FA1120FDF70DFA4FF0010AC8F800A088
:102380002F20FDF783F889F803A0B54200D2354627
:10239000124BE8193C3320F07F401860DBF8001046
:1023A0005A46091B21F07F41001B20F07F40C91CC9
:1023B00081420FD9106818602F20FDF767F800E000
:1023C00004E0BDE8F05F1120FDF7EEB9BDE8F05F75
:1023D00003F04CBBBDE8F09FAC2900200415014080
:1023E0000010014010B5A0211548FDF7B6F81448BB
:1023F00002210622017000218170C2700122028236
:10240000104A4261A0F18402416292F8312062B127
:10241000A0F88020A0F15202C0F884205922A0F830
:102420007C2000F17C02826600E0816600F8881F53
:102430004FF40572416001720282418210BD0000BA
:102440003C3800208429002010B514210D48FDF7E8
:1024500084F80C48817A21F00F01491C21F0F00129
:102460001031817208A14160072101814FF4A071F0
:1024700081814FF40271C181002101824FF4C87142
:10248000418210BD283800204E6F646543464700E6
:102490000848807918B1012804D0022809D1022007
:1024A000FFF792BE0549044808600020091D086036
:1024B0003CDF7047B83700200001000208050050DB
:1024C0002DE9F04117880646B81D14460D4698427E
:1024D00002D90C20BDE8F0813188072206290AD3F1
:1024E0004FF4486C4FF6FF73614501D9994202D110
:1024F0007088062801D21046ECE7604501D9984261
:10250000F9D1994203D0984201D08142F3D80520F5
:10251000E85520881221401C80B220802954208850
:10252000401C80B220804119308803F0FDFF2188D3
:10253000084480B220804119708803F0F5FF21889B
:10254000084420800020C5E7074810B5006802F065
:10255000A1F818B100221146FDF730FF0249012011
:102560001439087010BD0000142800200146002016
:102570002A2911D006DC59B128290BD0292900D1EC
:10258000082070472F2909D03229FAD140207047FE
:1025900001207047042070471020704720207047AA
:1025A00010B500EB001404EB40100D4C002304EBBD
:1025B000C00000BF03EB430400EBC404247A8C4248
:1025C00007D103EB430100EBC1000830106000208D
:1025D00010BD5B1C102BEDD34BF2051010BD00009D
:1025E000403300202DE9F05F8B4600EB001101EB3A
:1025F00040112648002500EBC108924698F8047067
:102600002E4637E006EB460108EBC104207AFF288E
:102610002DD0207F01282AD1607A8146402801D21E
:102620004FF040095FEA497001D0012100E000212C
:10263000C1EBD90204F10C005946FCF7ACFFA8B974
:1026400004EBD90009F00701027B4FF47F40C8403A
:102650000BEBD9010240097801408A4206D11DB135
:10266000607A6978884201D904F108057F1E761CDA
:10267000102E01D2002FC5D125B10020CAF800507C
:10268000BDE8F09F4BF20510FAE700004033002050
:10269000FF21017000214170017541608160C160BE
:1026A00001617047034A0146002012688A4200D047
:1026B00001207047403300202DE9F0410C4E00EB23
:1026C0000011002401EB4017A04606EBC70500BF30
:1026D00004EB440005EBC0000830FFF7D9FF85F894
:1026E0000480641C46F83780102CF1D3BDE8F081DB
:1026F0004033002070B588B0054680200C4600901D
:1027000016466946284602F083FD002841D12D680F
:1027100080212846FCF721FF76B1694605F1780053
:10272000009602F075FD002833D1A86F0099FCF7E0
:1027300014FF0098A5F87C00142102A8FCF70DFFF7
:10274000A07C04F1680100098DF81400A08AADF89E
:10275000160084208DF81900B4F87000ADF81A0046
:10276000A07C020903A8FCF7DFFEA07C10F00C0F90
:1027700011D0C0F3810000BF8DF8180002A92846CF
:10278000FEF7F6FD002804D121462846FEF7C2FFD9
:10279000002008B070BD0220EEE7000010B590F8F0
:1027A000204000F1220122461648FCF7BDFE154AE2
:1027B00002F1120011780170A0F12C0151F81B3FB9
:1027C000C1F812301BBAC0F801304B68C1F816309E
:1027D00019BAC0F80510517A417229B1012903D004
:1027E000022901D00B2010BD0A3C14F0FF0207D0D3
:1027F000044980F82C200A3101F13500FCF794FEE1
:10280000002010BD6E37002010B5134C2079000752
:102810001ED46069401C6061E06808B104200AE0D1
:1028200002F042F808B1022005E0206960B160685A
:10283000C10704D00320BDE8104003F0F9BA40F00E
:10284000010060600020F6E7BDE81040FEF75ABCCA
:10285000BDE8104003F0E2BA442800200649486869
:10286000020707D4820702D540F001004860022029
:1028700003F0DEBA03F0D2BA44280020F0B50378A2
:102880008E7F1F0903F00F05012391F876400D2F6D
:102890000AD00E2F0DD03C4401EBC6060D2D34841A
:1028A00011D00E2D13D01CE043780D341C440223AC
:1028B000F2E7437804F20D1404EB032384782344F5
:1028C0009CB20323E8E7C55C5B1C0D3509E0C75CDF
:1028D00040F20D155B1C05EB0725C75C5B1C3D44F6
:1028E000ADB275841844706281F87640708C1844DB
:1028F00010800020F0BD00002DE9F04100260125E8
:10290000144C22E06068226900EBC607387805FAAB
:1029100000F1114217D08A43226102F0D9FB02462E
:102920003878E36805FA00F1194002FA00F3994299
:1029300009D17978012901D0012100E0002151401D
:102940007A6802B19047761CF6B220788642D9D3D5
:10295000BDE8F081982900202DE9FF5F83464FF004
:10296000000AD3F808908DF805A003208DF8040024
:10297000D868884602901F46694601A800F0BCFE50
:1029800000286DD10098402184688120261FA4F181
:102990002C05307004F803AC24F802AC284600F093
:1029A0004FFC08F1080090E80E00D8F81400C5E9C3
:1029B0000830C5E9061200988089001DC0F3072180
:1029C00041EA0020A88098F81800FF284AD008F1B2
:1029D000180090E80E00D8F82400C5E90430C5E9D5
:1029E000021200BFB9F800002080B9F80200608030
:1029F0000098D7E902128068091D001D121FFCF71C
:102A000093FD0098002303AA808910213E30ADF881
:102A10000C0005F1080001F099FD002303AA102124
:102A200005F1180001F092FD0098002303AA8189A6
:102A30008068091D89B2001F01F088FDBDF80C00F7
:102A4000C043C0F3072141EA0020708000998868E4
:102A50002C388860C8682C30C860584601F0D8FE11
:102A6000BDE8FF9F48F2FE00C5E9020ADBE900105D
:102A7000C5E90410287C80F002002874B2E7000049
:102A80000E4910B54A788C780023A24212D0521C0D
:102A9000D2B24A70022A00D14B70084A4B781832E1
:102AA00052F8232002600869104420F07F4008613A
:102AB000012010BD0360002010BD0000AC290020E3
:102AC0002DE9F0470D46164609880022944601F08C
:102AD000FF084FF486790D290FD3494507D9A1F294
:102AE0000D114FF00E088AB24FF0020C05E00D39BF
:102AF0004FF00D088AB24FF0010C6B8800211C4684
:102B00000F460D2B0CD34B4505D90E24A3F20D1106
:102B100089B2022704E00D24A3F10D0189B2012737
:102B200060B108F00F0363F31F1404700124BCF1BB
:102B3000010F08D0BCF1020F08D00BE00CEB07002E
:102B40005B1C184414E04270022403E0130A437033
:102B500082700324012F02D0022F0DD001E0015515
:102B6000641C6A8820446968FCF7DEFC688820449D
:102B700030800020BDE8F0870A0A0255641CEEE7A9
:102B8000002808D0112801D0FDF770BC0248416828
:102B900041F00801416070474428002010B51F4CE7
:102BA000204621784068012910D002292DD0032920
:102BB00032D1000725D46069401C606101F074FEC9
:102BC000D8B12078BDE8104002F0F8BF000718D453
:102BD0001348A28B017801EB810100EB8100C188D1
:102BE000891A0904090CC18003D0BDE8104003F024
:102BF000DBB8BDE81040FFF743B9BDE81040FEF771
:102C000081BABDE8104002F001B90648617850F879
:102C10002100BDE81040004710BD000044280020FE
:102C2000702F00201068020028DFFFF7A9BF29DFFE
:102C3000FFF7A6BF10B50F4C6069028941680A30E2
:102C40007CDF18B100221146FDF7B8FB60690088EF
:102C500078DF18B100221146FDF7B0FB60690C3037
:102C60007ADF002805D00022BDE810401146FDF7AC
:102C7000A5BB10BD2C2900202DE9F84FDFF8D0A00E
:102C80000A9E9B460D460746002400F10108BAB192
:102C900005F120000090FCF777FC2F210AF80710BF
:102CA0001FFA80F91FFA88F70AEB07004A460099D5
:102CB000FCF73AFC07EB09001FFA80F8AF681DE04B
:102CC0003C210AF807101FFA88F7AD6809E05B4657
:102CD0001F4A294638460096FFF7CEFF040031D13F
:102CE0006D68002DF3D12CE05B46194A3946404609
:102CF0000096FFF7C1FF040024D17F68002FF3D1B5
:102D00003E220AF808206A8808F10100514680B284
:102D1000D20505D50A180FA3001D1B68136080B2E9
:102D20002C220A54401C85B23088A8420CD3401B88
:102D300030805846FCF728FC58442A460449FCF7E2
:102D4000F3FB2046BDE8F88F4CF20C30FAE70000A8
:102D5000D43200203B6F627300000000F0B50D4CD0
:102D60000246002004F11C0504F138034AB154F86E
:102D70002060964205D353F8206055F82070BE427B
:102D800007D153F820608E4203D8401C0728EDD3AA
:102D90000020F0BD4468020010B501460020FFF796
:102DA000DDFF024951F8200010BD00004468020018
:102DB0002DE9F041124E07460125BD403068FDF770
:102DC00001FC00280DD10F4C2069284207D138465C
:102DD00002F07EF90028E06805D0284304E0A8430B
:102DE0002061BDE8F081A843E060206928432061AC
:102DF000A1683068BDE8F0410022FDF7A3BB0000E8
:102E00003C680200982900202DE9F04788B00D4663
:102E100004469246142101A8FCF79FFBA87CC0F34E
:102E20008101012903D010F00C0F02D004E0012031
:102E300000E002208DF814004FF085098DF8159000
:102E4000A88AADF8120041F23360ADF81600A87CF4
:102E500005F16801020902A8FCF766FBA87C01A93C
:102E600000098DF810006846FEF7CAFB18B1002271
:102E70001146FDF7A3FA29460098FEF74BFC18B15E
:102E800000221146FDF79AFAE87C00263F4FDFF852
:102E90000081012819D0032857D0009981F8139098
:102EA00007A80099FEF73CFC18B100221146FDF777
:102EB00085FA0098FEF721FB002803D00022114676
:102EC000FDF77CFA08B0BDE8F0870099452052462E
:102ED000C874294606A8FEF774FA38B100988F2105
:102EE000C174817C41F00C018174D9E79DF8180010
:102EF000322808D02748C680386880EA0800204277
:102F00000CD001220BE0386880EA0800204202D091
:102F1000204C24340AE01F4C333407E000221D48C3
:102F20001DA1801DFCF7DCFD1A4CA41D2046FCF7FA
:102F30002BFB82B221460098FEF7E0FB0028AFD0C1
:102F400000221146FDF73AFAAAE7009B44200F4AF7
:102F5000D874A869083205780D4804EA0001101FEA
:102F6000302D09D0312D04D0322D08D08020D874D6
:102F700096E71160066093E70160166090E7396894
:102F800024EA010303600C40146089E70405005043
:102F900000010002002800202564000070B51B4CD1
:102FA000207900072DD41A48017801EB810100EB4C
:102FB00081052E6902F032FBE9882A89761E1144C8
:102FC0003144B1FBF0F02169002549B161698142CA
:102FD00006D1E560606840F001006060002008E014
:102FE00001F062FC10B10220E56002E0206920B12E
:102FF0000320BDE8704002F01BBFBDE87040FEF743
:1030000081B8BDE8704002F009BF000044280020EC
:10301000702F0020002070470348002141600121EB
:103020000170002070470000082900202DE9F843B6
:103030000746364814460D460078C8B34CF20E10C9
:10304000002F38D0002D36D0002C34D0D4E90260C7
:103050004FF0000804284DD3A98804294AD33A30F8
:10306000ADF8000000236A46102105F1080001F0C8
:103070006DFA00236A46102105F1180001F066FA86
:10308000A089002381B26A46A06801F05FFABDF80A
:103090000000C043ADF8000003202070A068001DB0
:1030A000A060E068001FE060BDF8000010BB04E015
:1030B000FFE74CF28010BDE8F88396F800C0BCF141
:1030C000810F17DDBCF1850F08D0BCF1860F05D04C
:1030D000BCF1870F02D0BCF1880F0BD138462946CE
:1030E00032462346BCF1850F04D0BCF1860F01D1D6
:1030F00002F0E2FB3078802805D12346324629468B
:103100003846FFF729FC4046D5E700000829002093
:1031100006490A781AB128B14860002070474CF27D
:10312000801070474CF20E107047000008290020F4
:103130002DE9FF5F8346414891468A460078002882
:1031400078D04CF20E10BBF1000F6FD0BAF1000F27
:103150006CD0B9F1000F69D000278DF805700320FD
:103160008DF8040014200290694601A800F0C4FA0A
:1031700000285BD10098816885200E1FA1F12C05E5
:10318000307088460C1D77707780FF21284600F04C
:1031900057F89AE80E00DAF80C00C5E90430C5E9E2
:1031A000021299E80E00D9F80C00C5E90830C5E90B
:1031B000061200988089001DC0F3072141EA002013
:1031C000A88021465846C8F80070FCF703FE009816
:1031D000002303AA808910213E30ADF80C0005F1D0
:1031E000080001F0B3F9002303AA102105F118002B
:1031F00001F0ACF90098002303AA81898068091DB9
:1032000089B2001F01F0A2F9BDF80C00C043C0F361
:10321000072141EA00207080009988682C38886076
:10322000C8682C30C860584601F0F2FA04B0BDE816
:10323000F09FFFE74CF28010F8E70000082900201B
:1032400070B50D46044601F0B0F93A20A071E57161
:1032500070BD00001CB500200090019003490420BF
:103260008DF800000969684688471CBD7C2900204C
:1032700070B5054600EB8500C0EB8511064800EBF4
:103280008104EC212046FCF768F90020E083A56169
:10329000C4F8E80070BD0000B04900202DE9F041FD
:1032A000114C16460025E28B12B10420BDE8F081D6
:1032B0004A88E2830988A183FF212174617401682F
:1032C000A1600A494068E060D1E90101C4E9000158
:1032D00004F120000746C021FCF73FF947F8C05F22
:1032E0007D6000203460E1E7B0490020EC29002037
:1032F00070B5054600200446FF262860281901798C
:10330000FF2904D0067101212046FCF7FDFD641C55
:10331000032CF3D370BD0000F8B51C4C20780028B6
:1033200032D0206928B10026E06820B1002526B1FE
:1033300012E00126F8E70125F9E7684651DF052884
:1033400005D030B100221146FDF738F804E001261F
:1033500002E021690098884795B96088ADF80000BF
:103360006946A06861DF052805D030B1002211460A
:10337000FDF724F804E0012502E0D4E902018847C2
:10338000002EDAD0002DD2D0F8BD0000D4290020C4
:10339000F0B595B00C00064624D00027ADF84C706F
:1033A00013AA39462046FEF7B3F800281CD1BDF811
:1033B0004C00119011A901A801F02AFF002813D197
:1033C00011990198FCF7C9F81198ADF800006A4608
:1033D00020460199FEF79CF8050007D0019801F0FE
:1033E000B5FE51E04CF20E3015B0F0BDBDF8003026
:1033F000214604F17000019AFEF7FEFC0500EDD1B4
:10340000E07C01F073FA012148B9E07C452803D142
:10341000A07C10F00C0F02D004203060DEE7206E9C
:103420000290A08AADF81000606E1090019809908B
:10343000BDF800000A900220ADF81E00A27C12F038
:103440000C0F23D00A20ADF81C008DF81B1000BF14
:10345000B4F87000ADF82000A07C122200098DF8AD
:10346000120021460BA8FCF75FF8A07C04F168016C
:1034700002090DF11300FCF757F802A8FEF7BAF99C
:103480000500B1D1039830602846ADE7ADF81C00C7
:103490008DF81B70DCE7000070B50D460D49144631
:1034A000097871B14BF20E1170B16DB164B1FFF7D3
:1034B000F9F801280AD022462946BDE87040FFF7F6
:1034C00091B84BF2801070BD084670BD4BF20510EC
:1034D00070BD00001029002070B50D460E4914463D
:1034E000097839B14BF20E1138B134B10F2D06D92C
:1034F000C81F70BD4BF2801070BD084670BDFFF74D
:10350000D1F8012805D022462946BDE87040FFF7D2
:1035100047B84BF2051070BD1029002010B50020EF
:10352000FFF7CAF8024901200870002010BD000012
:103530001029002070B50C4612490978C9B14BF228
:103540000E11C8B1C4B10025FFF7ACF8012815D0A1
:103550002178FF2909D000EB001101EB40110A4846
:1035600000EBC1010879401E08712046FFF790F872
:1035700006E04BF2801070BD084670BD4BF2051599
:10358000284670BD102900204033002070B5054644
:103590000D48007870B185B100242046FFF782F80D
:1035A00001280DD000EB001101EB4010074941F854
:1035B000305007E04BF2801070BD4BF20E1070BD22
:1035C0004BF20414204670BD102900204033002027
:1035D0000B4910B5097841B150B10024FFF762F8EA
:1035E000012808D0FFF768F807E04BF2801010BD03
:1035F0004BF20E1010BD4BF20514204610BD00001A
:1036000010290020F8B50C463949097851B164B148
:1036100022784BF207110F2A02D86278802A07D944
:103620000846F8BD4BF28010F8BD4BF20E10F8BD05
:103630000025FFF737F80646012855D021786A465D
:10364000FEF7AEFF002120B306EB061202EB461395
:10365000284A002002EBC30300EB400503EBC5053D
:103660002D7AFF2D05D0401C1028F5D34BF2041500
:103670003CE000EB400003EBC0000830009006EB9C
:10368000061000EB461002EBC0000D460279521CFA
:1036900002710098227800F8012B627800F8132B51
:1036A000227D00F81029016041608160C16061786D
:1036B000CA08211DFBF738FF6178480716D001F0D2
:1036C00007024FF47F40D040009B04EBD10203EB94
:1036D000D10612793179024081433171607811430A
:1036E00003EBD000017101E04BF205152846F8BD4F
:1036F0001029002040330020F8B504461A480E4631
:103700000078E0B14BF20E00002C1AD0002E18D039
:1037100020784BF2070120B3052822D86278012ACD
:103720001FD8616871B102F09FFC0546606862783D
:103730004119684601F086FE010006D011E04BF207
:103740008000F8BD4BF20900F8BD00986268C260C5
:10375000227802706278012A02D042682A4482608C
:1037600030600846F8BD00001129002038B50D462C
:103770000D49097839B148B10146684601F08AFE21
:10378000040006D00DE04BF2800038BD4BF20E0075
:1037900038BD1DB10098406801F0D8FC009801F0D8
:1037A0008DFE204638BD00001129002070B5084D5F
:1037B000002400BF04EB840005EB800001F07EFED6
:1037C000641C0A2CF6D3034901200870002070BD48
:1037D000C834002011290020F0B5D8B100210422FE
:1037E0004BF207256426047812E0436853F83170E1
:1037F00057B102EBC107DB5933B1642B04D3B3FBE0
:10380000F6F706FB17330BB12846F0BD491CC9B2C9
:103810008C42EAD8014948600020F0BD14290020FC
:1038200010B500F009F8002805D00022BDE81040CE
:103830001146FCF7C3BD10BD70B5114C2068643053
:103840002060C043642801D2642020606068A8B171
:10385000002504260EE0416806EBC5000A582068E2
:10386000B0FBF2F302FB130212B951F8351088478E
:103870006D1CEDB260680178A942ECD8002070BDE3
:10388000142900207FB504460878164D30B1012870
:1038900003D1FEF789FC022028707FBD0220FEF7CD
:1038A00083FC0320287048F2FE0000900020019065
:1038B000D4E90001CDE902019DF8080080F0020082
:1038C0008DF808004FF4FA7001F02AFB064A6946A9
:1038D0002046FFF72DFC0028DFD000221146FCF720
:1038E0006DFD7FBD00280020C46702002DE9FF4F59
:1038F00083B04FF000091E460C46ADF80490CDF899
:103900000090FF2132788046119B03278A46484663
:1039100004F1280BB7EB521F72D17278B51C120656
:1039200004D515F8012B110902F00F0A197083F85C
:1039300001A03278C2F3C1073022F7B16023012F12
:1039400015D0022F04D0032F2CD1237060700CE00F
:103950002B78C3F3830343F06007277015F8013B0E
:1039600002EA930242EA8313637060801AE02370D4
:1039700015F8013B02EA93020DE02B78C3F38303B1
:1039800043F06007277015F8013B02EA930242EA10
:10399000831215F8013B03F00F031A43627035F8E8
:1039A000023B63803278520702D415F8013BA371C1
:1039B0003278930704D0C04B02F003029B5C01E015
:1039C00015F8013BE371A060E06020616061A061D7
:1039D000E061206260627078B74F04F1080243062C
:1039E000A7F1040702924BD510F0300F75D0C0F349
:1039F0000110012805D002280AD0032817D10EE0B3
:103A0000F1E055F8042B226155F8042B62610EE0B9
:103A100035F8022BE2827A88A4F8132007E0D8E96F
:103A20000203C4E90403207C80F0020222746A4687
:103A30004046FFF751FD10B14AF240294DE0009990
:103A40004878091DC2080298FBF76EFD009A51786C
:103A5000480742D001F007034FF47F40D84002EB03
:103A6000D10304EBD10C1B799CF80810034081436F
:103A70008CF808105278194304EBD20001722CE044
:103A8000C0F3011030B101280BD0022812D0032856
:103A900023D118E0102229460298FBF745FD103586
:103AA0001BE03988218155F8041B216155F8041B5E
:103AB000616112E0398821817988A4F8131035F802
:103AC000021BE18209E039882181D8E90202C4E9B8
:103AD0000402207C80F002012174707804F1180245
:103AE000029243074FF0FF014FEA007255D5002ABA
:103AF00000F003000ADA002875D1217635F8021BA0
:103B0000A4F8191055F8041B6162A3E0012804D041
:103B1000022809D0032866D10DE055F8041B216264
:103B200055F8041B616210E07988A4F8231035F879
:103B3000021BE18409E0D8E90002C4E9080294F814
:103B4000200080F0020184F820106A465146404669
:103B5000FFF7C2FC10B14AF240297BE00099487897
:103B6000091DC2080298FBF7DFFC009A517848074C
:103B700070D001F007034FF47F40D84002EBD1032F
:103B800004EBD1071B79397E0340814339765278A3
:103B9000194304EBD20001765CE0002A00F0030038
:103BA0002ADA88B3012804D002280FD0032851D183
:103BB0001AE0217615F8011B2046617655F8041BA2
:103BC00040F8231F15F8011B017143E0217615F819
:103BD000011B2046617635F8021B20F8251F15F8D9
:103BE000011B817036E049E021760221617615F8EB
:103BF000011B84F827102DE030B101280CD00228D9
:103C000013D0032826D119E0FFE710222946029895
:103C1000FBF78AFC10351DE03988218355F8041B19
:103C2000216255F8041B616214E039882183798888
:103C3000A4F8231035F8021BE1840BE039882183B6
:103C4000D8E90002C4E9080294F8200080F00201DB
:103C500084F820103078400708D501AA214628466C
:103C600000F05CFA0544BDF8040038B11098A91BB7
:103C7000401A82B2A2801098824203D90B2007B06A
:103C8000BDE8F08FBDF80410601829462830FBF716
:103C90004BFCA088BDF804100844A080059928308A
:103CA0000880A08840BAA080A079112802D1A188FC
:103CB000ABF804104846E2E7B86802002DE9FF4F70
:103CC0004FF0000B91B00646ADF834B0CDF830B0EF
:103CD00096F81080777C60208DF802B08DF8000097
:103CE00003F108001C46DA46D9460DF102050F9093
:103CF000B8F1FF0F0FD101460E900CAA3046FFF726
:103D0000CBFB40B932460C990E9800F0A8FD8246D4
:103D10000C9890F8008004F118001090FF2F0FD13C
:103D200001460E900CAA3046FFF7B6FB40B906F1EB
:103D300008020C990E9800F092FD81460C980778C5
:103D40008021B8F1FF0F0AD08DF801109DF8021004
:103D5000FF2F41EA08108DF8020004D108E0FF2F80
:103D600008D08DF801109DF8020038438DF802004C
:103D70006D1C01E08DF801B0207861780007000E1D
:103D800040EA11108207120E42EA900062880AB9D6
:103D9000090707D0810616D005F8010B607800F0FE
:103DA0000F001CE040B19DF8001041F010018DF8AB
:103DB000001005F8010B17E09DF8000040F0180016
:103DC0008DF8000010E09DF8001000F0C00041F0F8
:103DD00008018DF80010617801F00F01084305F823
:103DE000010B608825F8020BA07911280FD005F887
:103DF000010BE079012811D0402814D0FF2819D0F8
:103E000005F8010BA06848F2FE0BC0B11DE09DF85B
:103E1000000040F004008DF80000EAE79DF8000083
:103E200040F0010003E09DF8000040F002008DF832
:103E30000000E7E79DF8000040F00300F7E7E068C6
:103E400018B9206908B9606908B3B8F1FF0F23D029
:103E50009DF8010040F040008DF801003078227C90
:103E600080F00200824257D1607C7178884253D141
:103E7000A07CB17888424FD1E17CF07881424BD16F
:103E8000207D3379984247D1FF2937D044E09DF80F
:103E9000010040F0400046E021895945DED0102263
:103EA00028460F99FBF740FB1035207EFF289DF830
:103EB00001005FD0FF2F6FD040F004008DF80100AB
:103EC000317A94F8200081F00201884215D194F8EB
:103ED0002110727A914210D194F82210B27A914254
:103EE0000BD194F82320F17A8A4206D194F8241059
:103EF000337B994201D1FF2A70D0DCE0FE280BD140
:103F0000607D7179884207D1A07DB179884203D163
:103F1000E07DF179884202D0BAF1000F06D09DF819
:103F2000010040F030008DF80100BEE75AB9607C16
:103F300048B9A07C38B9E07CFF2804D1207DFE2858
:103F400001D1607D60B19DF8010040F010008DF856
:103F50000100216945F8041B606945F8040BA4E7DA
:103F60009DF8010040F020008DF80100E08A25F85E
:103F7000020B9AE740F008008DF80100FF2F0CD0EB
:103F800040F004008DF80100FF212176B4F81900FB
:103F900025F8020B606AB4E048E0617E0229618B7B
:103FA00001D089B146E0E9BBE169A1B9216A91B9C3
:103FB000A18C69B994F8261051B940F003008DF82E
:103FC000010094F827002CE0E16921B9216A11B9B8
:103FD00094F8241019B1A18B79B12BE05AE040F08C
:103FE00002008DF80100607E05F8010B204630F8D4
:103FF000251F25F8021B807813E0E18B91B9218CF5
:1040000081B994F8221069B940F001008DF80100DF
:10401000607E05F8010B204650F8231F45F8041B6D
:10402000007900E006E005F8010B09E0218B594515
:104030003FF446AF102228461099FBF775FA103569
:104040009DF80000400705D50DAA2146284600F03E
:10405000B3F805446846281A85B2BDF83410C5F196
:10406000280001441E982A46401A13990880BDF87A
:1040700034006946401B20442830FBF755FABDF850
:1040800034001299401B20442830086015B00020ED
:10409000BDE8F08FFE290ED194F82510727B914275
:1040A00009D194F82610B27B914204D194F82710DC
:1040B000F27B914202D0B9F1000F06D09DF80100C9
:1040C00040F003008DF80100BAE780B994F82100B0
:1040D00068B994F8220050B994F82300FF2806D15B
:1040E00094F82400FE2802D194F8250060B19DF8D0
:1040F000010040F001008DF80100216A45F8041B21
:10410000606A45F8040B9BE79DF8010040F002004F
:104110008DF80100E08C25F8020B91E770B5057869
:104120001E240346B4EBD50F44D1168801F12804B0
:10413000344411268E71118808311180431C15F00A
:10414000030106D0012908D002290FD0032929D163
:1041500016E033F8021B21800EE033F8021B2180A9
:1041600013F8011B41F4704149BA1AE013F8011B1E
:1041700041F4704149BA218033F8021B618011E09B
:1041800019784FF2B00202EB11110E0A46EA012132
:10419000218013F8011B01F00F0111440A0A42EAC1
:1041A00001216180690702D50021E18002E033F836
:1041B000021BE180181A70BD70B58C790346112C72
:1041C0002FD1148828312144F02404700C88431C1A
:1041D00065BA2E0940F60B75AE420ED14E8876BAFE
:1041E0003609AE4209D1F32404704C880D88C4F31B
:1041F00003242D0A44EA051423E064BA240AF02CAF
:1042000011D04C8864BA240AF02C13D00C8823F8FF
:10421000024B4C8823F8024BC98823F8021B082163
:104220001180181A70BDF22404700C88240A03F857
:10423000014BEEE7F12404700C8823F8024B4C8804
:10424000240A03F8014BE7E72DE9F043DFF8848106
:104250008FB00D46D8F80020814682B100245E4E12
:1042600002940594F18BB9F80200274681420BD1E4
:10427000B18BB9F80000814206D1304605E04AF220
:1042800080200FB0BDE8F08338460290297831B124
:1042900001293DD002295AD003292FD192E0686824
:1042A000007C8DF80C006968C97B8DF80D10696879
:1042B000897B8DF80E10FF218DF80F10FE218DF8EF
:1042C00010106968497B8DF811106968097B8DF8B9
:1042D00012106968C97A8DF813106968897A71B10A
:1042E00040F002008DF80C0002AA494603A8FEF730
:1042F000D5FF040006D04846FCF7FAFA67E020F044
:104300000200EFE7012102988DF828100D9754E084
:10431000E0B302218DF828100AA90D979047029862
:104320000025876907EB8700C0EB871006EB800646
:1043300005EB450006EB8000006A08B100F006FFBF
:104340006D1C102DF4D33846FEF792FF3FE0E8B124
:10435000686808A980892930089005A800F058FFEE
:10436000040034D1686807AA8189CDE90012836806
:1043700009AA05990298FFF7B9FA040007D0A4F535
:104380002240403803D0059800F0E0FE1FE0A96805
:104390004AF24010814201D104B90446BDF824100C
:1043A0000298059AADF830100323BDF81C108DF863
:1043B00028300D940B92ADF83210D8F800200AA9DD
:1043C000904704E001F004FE029801F021FE20462F
:1043D00057E70000EC290020B04900202DE9F04FFC
:1043E000334C236873B14CF20E035AB350B3646874
:1043F0004FF0000A55464CF20503012C06D00CB3D1
:104400005B1C1FE04CF28000BDE8F08F284C0834A4
:104410002668BEB1066000200029F5D07369DFF878
:1044200094E0002604EBC30909EB06031B79FF2B7C
:104430002FD003EB83040EEB840B9BF81030022B80
:1044400002D026E01846DFE700235F464FEA030468
:1044500012F804C017F80480C44504D10833641C62
:10446000102CF5D311E012F804C008F0FF048CEA18
:10447000040C00245FEA0C6707D44FEA4C675B1C0E
:10448000641C4FEA176C082CF4D3534501D39A46A9
:104490005D46761C032EC7D31DB13CCD81E83C00A0
:1044A000B2E700220A604A608A60CA60ACE7000096
:1044B0001C290020903500202DE9F041884619493B
:1044C000096809B34CF20E02B8F1000F1FD0F0B129
:1044D0001449406900240831134F4CF2050601EBE2
:1044E000C00528190079FF2808D000EB800007EBF1
:1044F000800010224146FBF74EF850B1641C032C9B
:10450000EFD33046BDE8F0814CF28000FAE7104668
:10451000F8E72919FF20087101212046FBF7F4FC78
:104520000026EEE71C29002090350020064A12687C
:104530002AB14CF20E0229B120B1FBF703BD4CF2B7
:1045400080007047104670471C29002070B5158800
:104550002C0AEDB217E0012922D010F8016B891E58
:10456000344410F8016BA4B23544ADB289B22E0ABE
:1045700003D004EB1524A4B2EDB2260A03D005EB58
:104580001425ADB2E4B20029E5D105EB042080B2D8
:1045900023B1A0F57F41FF3900D10020108070BD0C
:1045A000017821448CB20021E1E7602101700021F3
:1045B00041704180FF2282714022C2718180704728
:1045C0007CB504004CF20E002CD02168002929D0C3
:1045D0006168002926D000F00BFEFFF7E7F801F034
:1045E000C7FEFEF719FDFEF799FF0F490022CA63C7
:1045F0000A644A648A640D496068C1E9000201F1F5
:104600000800FEF775FE002500212846FBF77CFC1C
:104610006D1C032DF8D32068009005480190684672
:10462000FCF778F87CBD0000903500201C290020A4
:1046300015060200FEB50C46896800254CF24106BD
:1046400031F8242D52BA21F804294A8852BA4A80F6
:104650008A79112A15D03A2A0FD002218DF800103C
:1046600002940B4A616801911268694690470121E2
:104670002046FFF77BF82846FEBD2246FEF7D6FC13
:1046800002E0224601F08CFE0546B042EFD1F2E78F
:104690001C29002010B50F4C6168884201D007200A
:1046A00010BD607858B90B481430FDF7D5FC0948A7
:1046B0001830FDF705FCFEF7BDFAFBF795FD00206D
:1046C0006070A069883073DF0028E9D10121217072
:1046D00010BD00002C29002010B5064C61688842EE
:1046E00001D0072010BD74DF0028FBD1002121700C
:1046F00010BD00002C2900201CB50C460749496854
:10470000884201D007201CBD684671DFDDF801102A
:104710002160BDF80510A1801CBD00002C290020DF
:104720000A4A5368984201D1487908B10720704776
:10473000064B002024331870086842F8250F88883B
:1047400090801946002070DF704700002C2900205F
:104750001CB50C4616494968884201D007201CBD8B
:10476000684671DF18B100221146FBF727FE9DF85D
:10477000060020709DF8051061709DF80410A1706E
:10478000FF21E170FE2121719DF8031061719DF8F8
:104790000210A1719DF80110E1719DF8001021B186
:1047A00040F00200207000201CBD20F00200F9E75C
:1047B0002C2900207CB50446006818B1012903D0DB
:1047C00007207CBD0E207CBD0F4DA8606068E860AE
:1047D000217A002028610120107168681060FCF7C0
:1047E00031FB0028EFD1E068E861206928620748C2
:1047F000009001A96846FDF757FC04469DF80400A7
:10480000FDF7E2FC20467CBD2C290020E11F0200C0
:1048100070B50C460B49096879B14CF20E017CB1B8
:1048200070B1A1898AB2A168FBF792FF0546002109
:104830002046FEF79BFF284670BD4CF2800070BDFD
:10484000084670BD1C290020C17C21B9807CC0F3C2
:104850008100022801D000207047012070472DE917
:10486000F041497815460646802917D0402918D9C5
:10487000CC0801F007070F2C08D029193019C4F112
:104880000F02401CC91FFAF786FE50B9305DB840D0
:10489000291911F8081CB940884202D10120BDE84D
:1048A000F0810020FBE7000070B50E48017801EBB5
:1048B000810100EB8104256900F0B0FEE1882289C6
:1048C0006D1E11442944B1FBF0F1074842698A4248
:1048D00005D301D1006910B14FF0000070BD4FF059
:1048E000010070BD702F00204428002018B120283E
:1048F00001D20120704700207047800701D00020BE
:10490000704701207047000010B5A0211C48FAF73D
:1049100024FE1C4A59230021D47B1948002C04D0C2
:104920008487A0F5947404640387017081704FF04C
:104930000404C4704FF001040482134C446104D099
:104940000F4C04F13804446200E0416292F83120D7
:1049500062B1A0F880200B4A02F13202C0F8842034
:10496000A0F87C3002F5C172826600E0816600F832
:10497000881F4FF40572416001720282418210BDAE
:10498000F0380020B83700208829002010B5142105
:104990000E48FAF7E2FD0D480DA2817A21F00F01D1
:1049A000491C21F0F0011031817200210180426028
:1049B000082202814FF4A07282814FF40272C281F8
:1049C00001824FF4C871418210BD0000DC38002024
:1049D000436F41505F535256000000000948407831
:1049E00020B1012805D002280AD100E00120FDF7FE
:1049F000EBBB0649044808600020091D08603CDF45
:104A000070470000B8370020000100020805005080
:104A100030B51488E51C9D4201D90C2030BD02251B
:104A20000D5513881C245B1C9BB21380CC54138837
:104A30005B1C9BB21380012807D0022807D00328F3
:104A400007D0042807D0072030BD002004E0012053
:104A500002E0CD5401E00320C8541088401C1080AF
:104A6000002030BD02464FF48070FEF7CDB9000043
:104A70002DE9F047DFF8ACA0DAF80C009AF8004016
:104A800080469AF80460DAF80890DAF810703AE094
:104A900009EBC4052A7833E002EB42016B68521C33
:104AA00003EBC101AB78D2B2934200D100220B7864
:104AB000022B02D0032B23D11FE0D1F804C0034600
:104AC000014603E0614503D00B46C969C1B1F9E76E
:104AD000B1B18B4205D1C06918B9134F0126BE6030
:104AE0000027D1F800C0C969D96149B10B68634496
:104AF0000B6005E00174C06900E000210028F9D1D5
:104B000069789142C8D1641EE4B2C1D2CAE90307F0
:104B10008AF80460404502D00120BDE8F0870020FB
:104B2000FBE70000AC290020001001402DE9F04710
:104B300005462F48002680460778D0F80C904BE0B9
:104B4000D8F8080000EBC70440E002D02846ED6921
:104B50001EE02078616800EB4002401CC0B201EB0F
:104B6000C2012070A278904200D126700A7848686D
:104B7000012A2DD1027C5ABB8A684260CA688260D1
:104B80000A69C2604969816198F8041001B1466000
:104B90004268D8F81030DFF85CC0D11A21F07F41AC
:104BA000614502D28268114406E0991A826821F0B8
:104BB0007F418A4202D9511A016000E006604660D6
:104BC000012186600174C66101F08EF9002DBCD10F
:104BD000207861788842BCD17F1EFFB2B0D2D8F86D
:104BE0000C10494502D00120BDE8F0870020FBE70A
:104BF000AC290020FFFF7F0000200123734A8AB008
:104C00005FF0030403FA00F1114204D0810001F1C6
:104C1000A041C1F80047401C2028F3D36C48026033
:104C20000025001D05602B466A4A09211F20FBF75D
:104C300041FC18B100221146FBF7C0FB664A012176
:104C40006648FBF725FC18B100221146FBF7B6FBBE
:104C500000F0EAFC18B100221146FBF7AFFB33224B
:104C600001215F48FBF7E4FA18B100221146FBF777
:104C7000A5FBFBF7CBFA18B100221146FBF79EFB10
:104C800007A90020FBF70CFB18B100221146FBF727
:104C900095FB14215348FAF760FC52485249504A98
:104CA00001605249416005725149C1605149016139
:104CB00008320121FFF77EFD18B100221146FBF7F3
:104CC0007DFB474D01A908352868FFF715FD4AA16E
:104CD000D1E90001CDE9010101A92868FFF720FD14
:104CE00018B100221146FBF769FB3D4928681031D5
:104CF000FFF72EFD18B100221146FBF75FFB384885
:104D0000103004903E48059004A8FFF759FC18B1F4
:104D100000221146FBF752FB3A48FEF7F9F918B1A9
:104D200000221146FBF74AFB2C4D08A92D1F2868CD
:104D3000039003A808901120FCF7DCFA18B10022B8
:104D40001146FBF73BFB3048FCF7CEFA18B10022C6
:104D50001146FBF733FBFCF739FA20481830FEF711
:104D60003BFD18B100221146FBF728FB002266210B
:104D70006868FBF7E7FB18B100221146FBF71EFB42
:104D8000EE219DF81C008DF810108DF8114020B117
:104D9000124810300590082003E01048303005908C
:104DA0000D208DF8180004A8FBF7D8FA18B10022DE
